:020000040001F9
:1040000080350020014201001342010015420100E9
:1040100000000000000000000000000000000000A0
:104020000000000000000000000000001742010036
:104030000000000000000000194201001B420100C6
:104040001D4201001D4201000F4A01001D420100F6
:104050001D42010000000000697501001D420100C1
:104060001D4201001D4201001D4201001D420100D0
:104070001D4201001D4201001D4201001D420100C0
:104080001D420100096B01001D4201001D4201009B
:104090002B6B01001D420100E57101001D42010072
:1040A0001D4201001D420100000000000000000050
:1040B0000000000000000000000000000000000000
:1040C00000F002F800F040F80CA030C808382418BE
:1040D0002D18A246671EAB4654465D46AC4201D140
:1040E00000F032F87E460F3E0FCCB6460126334232
:1040F00000D0FB1AA246AB4633431847083E0000E7
:10410000283E0000103A02D378C878C1FAD8520786
:1041100001D330C830C101D504680C60704700007D
:104120000023002400250026103A01D378C1FBD8D3
:10413000520700D330C100D50B6070471FB5C04691
:10414000C0461FBD10B510BD03F088FE1146FFF735
:10415000F5FF00F0AAFC03F0A0FE03B4FFF7F2FFA6
:1041600003BC03F0A5FE0000401E00BF00BF00BF5F
:1041700000BF00BF00BF00BF00BF00BF00BF00BF47
:1041800000BFF1D170470000401E00BF00BF00BF5C
:1041900000BF00BF00BF00BF00BF00BF00BF00BF27
:1041A00000BFF1D170470000401E00BF00BF00BF3C
:1041B00000BF00BF00BF00BF00BF00BF00BF00BF07
:1041C00000BFF1D17047000070B505460C46164699
:1041D00002E00FCC0FC5103E102EFAD2082E02D3EB
:1041E00003CC03C5083E042E07D301CC01C5361FFE
:1041F00003E021782970641C6D1C761EF9D270BD15
:104200000A4802680F210A430260094880470948AA
:104210000047FEE7FEE7FEE7FEE7FEE7FEE70000F9
:1042200005480649064A074B704700002405004030
:10423000DF420100C14001008025002080350020C0
:10424000802D0020802D00202E482F4908607047C7
:104250002E48008CC0B2012810D12C48808C000759
:10426000000F0BD12948806AF0210840402805D171
:104270002648C06A084201D1012070470020FCE7AF
:104280002248008CC0B2012827D12048808C00072A
:10429000000F22D11D48806AF021084205D11B4839
:1042A000C06A084201D1012070471848806AF02195
:1042B0000840102805D11548C06A084201D10120E4
:1042C000F2E71248806AF0210840302805D10F48F3
:1042D000C06A084201D10120E6E70020E4E710B5FA
:1042E000FFF7CEFF002805D009480A494860C813E7
:1042F00009498861FFF7ACFF002802D00120074977
:10430000886010BD0024F40000200020C00F00F0E1
:10431000DFFF07C000050040006C004000060040C1
:104320000F2000F0E6FB00BFBFF34F8FFD48FE49B2
:10433000C860BFF34F8F00BF00BFFEE704460D46C5
:104340002A462146F948FFF7EBFF00BF00BF0320D4
:1043500005210907072212028918086200BF00BF61
:1043600000BF00BF052109078918486200BF00BFD0
:1043700000BF00BF052109078918C86300BF00BF3F
:10438000704738B500BFEA48EA4B05220221009089
:10439000002002F0CEFB044600BF2546002D05D0CC
:1043A00000BFE5A2B4212846FFF7BAFF00BF00BF57
:1043B00038BD3EB500BF6846007801090901491CB7
:1043C000009168460078F02188431030009000BFCB
:1043D0000C22DCA168466CDF044600BF2546002D98
:1043E00005D000BFD4A2CF212846FFF799FF00BF18
:1043F0000020019002902821684681805021C180D0
:1044000000210181FF219131418101A86ADF044629
:1044100000BF2546002D05D000BFC7A2DD212846DC
:10442000FFF77EFF00BF3EBD30B593B0062103917C
:10443000C84903C9029101903C2104A803F009FD79
:1044400002200490012168464175018303A9079168
:104450000221818501A90C91002104A801F012FE1E
:10446000044600BF2546002D05D000BFB2A2FA21A8
:104470002846FFF755FF00BF13B030BD00B599B017
:1044800030210DA803F0E5FC00200D90012008A9C3
:104490000876002004E000220EA901310A54401CD5
:1044A0001428F8DB0DA9AC4800F0B3FE302101A8B8
:1044B00003F0CFFC00200190012069460872002023
:1044C00004E0002202A901310A54401C1428F8DB40
:1044D00001A9A24801F038FA19B000BD1E20A04978
:1044E00008800846807840084000401C88700846D4
:1044F0008078022188439A498870084680781C2178
:1045000088430C309649887008468078202188437B
:10451000934988700720C87010200871704770B5E3
:1045200005462868002810D13B218E48008866DFA8
:10453000044600BF2646002E06D000BF7EA2FF2103
:1045400042313046FFF7ECFE00BF70BD044600BFAD
:1045500079A2FF214D312046FFF7E2FE30B587B04A
:104560001C21684603F075FC0020009005204004E3
:104570000190801002900321684601730021C181DF
:1045800001747948059079480690684602F0A9FCC4
:10459000044600BF2546002D06D000BF66A2FF21BD
:1045A00064312846FFF7BCFE00BF07B030BD70473E
:1045B00030B585B01421684603F04BFC00216846F5
:1045C00001700020019068460172402101820021A3
:1045D000418263DF044600BF2546002D06D000BFA0
:1045E00055A2FF2185312846FFF79AFE00BF08201B
:1045F00000F07FFA05B030BD3EB5054620200542EB
:1046000003D100205A49087002E00120584908707F
:104610001020054203D100205649087002E0012015
:10462000544908702807000F53490870084600785D
:10463000030003F044FC10090C0F111316181A1C88
:104640001E20222427292B2E4F24240322E09D24E0
:1046500024031FE0494C1DE0494C1BE03B2424048B
:1046600018E0484C16E0484C14E0484C12E0484C26
:1046700010E0484C0EE0484C0CE0484C0AE00124A5
:10468000A40607E0464C05E0464C03E0012424075D
:1046900000E000BF00BF01204349C860486000201F
:1046A0004249086032480078324909780B230622D3
:1046B00001940091029009210A2003F073F93EBD94
:1046C000F8B50546AE1D30882349C988884205D112
:1046D000214C2034207803F04AF900BF30881E496D
:1046E000C98A884204D11C494031087AFFF784FF07
:1046F00030881A49C988884275D118482030047812
:10470000471C2046E10F091849104900611A08D1D9
:10471000A87F401EC2B2264803783946204603F0DF
:10472000F6FA47E00400FA0500ED00E0EFBEADDE6A
:10473000154B0100B02000202E2E5C6D61696E2E9D
:104740006300000053656E736F72487562303030DD
:1047500000000000DC7E010044240020B82400207A
:1047600006200020042000201F4501004D450100C7
:104770000C2000200D2000200E20002000B013008F
:104780000050270000A04E0000F0750000509D0072
:1047900000F0EB0000903A0100E0D70100B0AF0359
:1047A00000705F07A4DFBE0E00200040002500401F
:1047B000182000202046E10F091849104900611A0D
:1047C00001290FD1A87F401EC2B2F84803783946AC
:1047D000204603F09CFAE88B401E82B23946F4482A
:1047E00001F029F900BF3088F149C98A884219D1FE
:1047F000EF494031087AC10F091849104900411AA0
:1048000003D10020E94908700CE0E9494031087AF9
:10481000C10F091849104900411A012902D101208C
:10482000E2490870F8BDF8B504460025208817282D
:1048300034D008DC10280DD0112815D013281FD033
:1048400014285AD130E0192842D0502851D052288B
:1048500053D11CE0092000F04CF9082000F04EF97B
:10486000A088D449088049E0092000F047F90020D9
:10487000C043D0490880002D01D1FFF799FE3DE0EB
:10488000CD4A0021CB4800886FDF054636E0002284
:104890001146C8480088A9DF05462FE03222A11D35
:1048A000C64803F077FA29E0C44EB61D3188E08986
:1048B000814206D100223146BE48008871DF05469C
:1048C00005E000221146BB48008871DF054615E06F
:1048D000A07900280CD1082000F010F900BF00BF1B
:1048E00003200004B649086000BF00BF31DF054661
:1048F00004E02046FFF7E4FE00E000BF00BF00BF79
:104900002F46002F06D000BFAE4A212109013846AC
:10491000FFF706FD00BFF8BD10B504462146AA48C2
:1049200000F0FFF92146A24800F09DFD204602F06C
:10493000ACFB2046FFF777FF10BD38B500BFA3489A
:10494000A34B5022A34900900D2002F004FC044622
:1049500000BF2546002D05D000BF9A4A9E49284633
:10496000FFF7DEFC00BF00BF38BD70B500BF9B4A3B
:104970000A21082001F0CEFB044600BF2546002D89
:1049800006D000BF8F4A8F2189002846FFF7C8FC58
:1049900000BF00BF70BD70B500BF9149012002F09B
:1049A00048FE044600BF2546002D06D000BF854ABC
:1049B000894924312846FFF7B3FC00BF00BF70BD12
:1049C00070B500BF874B884A0121884802F0B4FCCB
:1049D000044600BF2546002D06D000BF794A7E4917
:1049E00035312846FFF79CFC00BF00BF70BD70B595
:1049F0003DDF044600BF2546002D06D000BF714AAA
:104A0000754942312846FFF78BFC00BF70BD30B5B9
:104A100085B0022024DF012500241421684603F01C
:104A200018FA18E068460119052002F081FF0546D2
:104A3000002D08D0641C142C05D11422694662484C
:104A400000F05EFC0024002D05D1002C03D10220D3
:104A500023DF05B030BD002DE4D1012C04D0A2B27B
:104A60006946594800F04CFC022023DF00BFF0E704
:104A70000EB55F4800785F4909785F4A12780B23CA
:104A8000009201910290062209210A2002F08AFF79
:104A900004205A4948600321022028DF022023DF36
:104AA0000EBD10B503F01DF810BDFFF74EFCFFF76B
:104AB00068FCFFF770FFFFF783FFFFF73EFFFFF78C
:104AC00054FFFFF776FCFFF7AFFCFFF7D7FCFFF7CB
:104AD00045FDFFF703FDFFF7CBFFFFF7E2FFFFF711
:104AE00066FDFFF765FD00BF01F0FCFBFFF77FFFF0
:104AF000FAE701218140424A9160704701218140DB
:104B00003F4AD160704710B53E4A0021084601F087
:104B100021FB10BD7CB504460D46009401953A4A30
:104B20000821684601F016FB7CBD7CB504460D46A5
:104B3000009468460571354A082101F00BFB7CBDE5
:104B400070B506460C4600BF002C01D1012000E0E4
:104B500000200546002D04D100BF2DA27521FFF7CE
:104B6000DFFB00BF02F020FB70BDF8B504460D4628
:104B7000264600BF082D01D1012000E00020074695
:104B8000002F05D100BF2FA2FF211431FFF7C8FB72
:104B900000BF316870688847F8BDF8B504460D4617
:104BA000264600BF082D68D1012067E018200020AC
:104BB000B82400200420002006200020C822002065
:104BC000000700503847010044240020074B010033
:104BD00019490100FC220020310200004C23002072
:104BE000FC2300202B4B010066060000102400204F
:104BF0000C2000200E2000200D200020002300406B
:104C000000050050414B01006B4B01009B4B010024
:104C10002E2E5C2E2E5C2E2E5C4E6F7264696353BA
:104C2000444B5C496E636C7564655C626C655C6288
:104C30006C655F737461636B5F68616E646C6572F1
:104C40002E6800002E2E5C2E2E5C2E2E5C4E6F7277
:104C500064696353444B5C496E636C7564655C6165
:104C600070705F636F6D6D6F6E5C6170705F7469A3
:104C70006D65722E68000000FFE700200746002FD8
:104C800004D100BF04A29B21FFF74AFB00BF30798B
:104C900031688847F8BD00002E2E5C2E2E5C2E2E2B
:104CA0005C4E6F7264696353444B5C496E636C7510
:104CB00064655C6170705F636F6D6D6F6E5C617079
:104CC000705F627574746F6E2E6800008A88C2838C
:104CD00070470022D243C2837047F8B504460E469F
:104CE000B51D2F882888E188884205D123462033C6
:104CF000FE4A00213846A5DF2888E189884205D18F
:104D000023463433FA4A00213846A5DF2888E18A51
:104D1000884205D123464833F64A00213846A5DFAC
:104D2000F8BD70B505460C462088102804D011281F
:104D300007D050280FD109E021462846FFF7C6FFCB
:104D40000AE021462846FFF7C4FF05E02146284631
:104D5000FFF7C3FF00E000BF00BF70BD30B58FB0EC
:104D600005460C460020079000BF6846007F0109F9
:104D70000901491C68460177007FF0218843103003
:104D80006946087700BF00BF6846407F01090901F6
:104D9000491C68464177407FF021884310306946BE
:104DA000487700BF6846807F06218843811C68469B
:104DB00081771C2108A803F04CF808A80078082186
:104DC0008843411808A801700078022188430146F1
:104DD00008A8017000781021884308A908700020F5
:104DE00009900B900C9007A80D9000200E9000BF2A
:104DF000012168468171C049818000BF0020009078
:104E000000BF6846007801090901491C6846017025
:104E10000078F021884310306946087000BF00BF59
:104E20006846407801090901491C6846417040788C
:104E3000F021884310306946487000BF684680788A
:104E40000821884301466846817080781021884394
:104E50000146684681708078410849006846817043
:104E6000807806218843811C684681706079A34957
:104E70000870A0794870E0798870207AC870607AEC
:104E80000871A07A4871E07A8871207BC871607BD4
:104E90000872A07B4872E07B8872207CC872607CBC
:104EA0000873A07C4873E07C8873207DC873207DE4
:104EB0000874A07D4874E07D8874207EC874142135
:104EC00002A802F0C6FF01A80290684603901421D0
:104ED0000182002141821421818288480690A8889D
:104EE000AB1D02AA08A9A2DF0FB030BD30B58FB04C
:104EF00005460C460020079000BF6846007F010968
:104F00000901491C68460177007FF0218843103071
:104F10006946087700BF00BF6846407F0109090164
:104F2000491C68464177407FF0218843103069462C
:104F3000487700BF6846807F06218843811C684609
:104F400081771C2108A802F084FF08A800780821B6
:104F50008843014608A80170007802218843811C1B
:104F600008A80170007810218843103008A9087043
:104F7000002009900B900C9007A80D9000200E9037
:104F800000BF0121684681715B49491E818000BFD5
:104F90000020009000BF6846007801090901491C03
:104FA000684601700078F021884310306946087027
:104FB00000BF00BF6846407801090901491C6846E6
:104FC00041704078F021884310306946487000BF36
:104FD0006846807808218843014668468170807859
:104FE0001021884301466846817080784108490055
:104FF000491C68468170807806218843811C684678
:105000008170607E3E490870A07E4870E07E8870A6
:10501000207FC870607F0871A07F4871E07F887131
:105020002020005DC8712120005D08722220005DF3
:1050300048722320005D88722420005DC8722520FC
:10504000005D08732620005D48732720005D88738B
:105050002820005DC8732920005D08742A20005DA7
:1050600048742B20005D88742C20005DC8741421C6
:1050700002A802F0EEFE01A80290684603901421F7
:10508000018200214182142181821D480690A88856
:105090002B460E3302AA08A9A2DF0FB030BD30B5EF
:1050A0008FB004460D460020079000BF6846007F81
:1050B00001090901491C68460177007FF0218843F6
:1050C00010306946087700BF00BF6846407F01097D
:1050D0000901491C68464177407FF0218843103020
:1050E0006946487700BF6846807F0BE010200020AB
:1050F0001220002014200020423700001C24002031
:105100003024002006218843811C684681771C21B9
:1051100008A802F09EFE08A80078082188434118DC
:1051200008A80170007802218843811C08A801703A
:1051300000781021884308A90870002009900B907E
:105140000C9007A80D9000200E9000BF012168462A
:1051500081719A49818000BF0020009000BF68469D
:10516000007801090901491C684601700078F021A6
:10517000884310306946087000BF00BF6846407819
:1051800001090901491C684641704078F0218843B3
:1051900010306946487000BF68468078082188430F
:1051A0000146684681708078102188430146684630
:1051B0008170807841084900491C68468170807878
:1051C00006218843811C684681707D480078400133
:1051D0007C490978090140187B49097840187B49C6
:1051E0000870142102A802F034FE01A8029068465B
:1051F00003900121018200214182012181827348B3
:105200000690A0882346163302AA08A9A2DF0FB091
:1052100030BDF8B505460E46306828600020C04312
:10522000E883317949204155022168468170DD21AA
:1052300089010180811C664852DF044600BF274671
:10524000002F07D000BF63A2FF215F313846FFF770
:1052500067F800BF00BF2A1D69460120A0DF044691
:10526000002C01D02046F8BD31462846FFF73EFE0F
:105270000446002C01D02046F5E731462846FFF7CA
:105280006DFD0446002C01D02046ECE7314628464F
:10529000FFF705FF0446002C01D02046E3E700207D
:1052A000E1E777B585B004460D460026E0882B4639
:1052B00007AA0021A4DF0646002E02D0304608B01F
:1052C00070BDE08B5149884217D04920005D00280D
:1052D00013D000200190029003900490E18868466A
:1052E0008180012181710021018107A8039004952B
:1052F000E08B01A9A6DF064600E008263046DEE77F
:1053000077B585B004460D460026E0892B4607AAEE
:105310000021A4DF0646002E02D0304608B070BD42
:10532000E08B3A49884217D04920005D002813D00D
:1053300000200190029003900490E18968468180EA
:10534000012181710021018107A803900495E08B60
:1053500001A9A6DF064600E008263046DEE777B55D
:1053600085B004460D460026E08A2B4607AA002198
:10537000A4DF0646002E02D0304608B070BDE08B98
:105380002249884217D04920005D002813D0002010
:105390000190029003900490E18A68468180012187
:1053A00081710021018107A803900495E08B01A978
:1053B000A6DF064600E008263046DEE74337000059
:1053C0000C2000200D2000200E20002016200020A0
:1053D000E47E01002E2E5C2E2E5C2E2E5C43757317
:1053E000746F6D53444B5C536F757263655C626C94
:1053F000655C626C655F73657276696365735C6238
:105400006C655F756172742E63000000FFFF000021
:105410008A88C28370470022D243C2837047F8B59E
:1054200004460E46B51D2F882888E188884205D19C
:1054300023462033FE4A00213846A5DF2888E1892B
:10544000884205D123463433FA4A00213846A5DF85
:105450002888E18A884205D123464833F64A00214C
:105460003846A5DFF8BD70B505460C4620881028E3
:1054700004D0112807D050280FD109E02146284632
:10548000FFF7C6FF0AE021462846FFF7C4FF05E004
:1054900021462846FFF7C3FF00E000BF00BF70BDF4
:1054A00030B58FB005460C460020079000BF684617
:1054B000007F01090901491C68460177007FF0213E
:1054C000884310306946087700BF00BF6846407FB8
:1054D00001090901491C68464177407FF021884352
:1054E00010306946487700BF6846807F06218843B0
:1054F000811C684681771C2108A802F0AAFC08A834
:10550000007808218843411808A80170007802211A
:105510008843014608A8017000781021884308A933
:105520000870002009900B900C9007A80D900020A7
:105530000E9000BF012168468171C049818000BF83
:105540000020009000BF6846007801090901491C4D
:10555000684601700078F021884310306946087071
:1055600000BF00BF6846407801090901491C684630
:1055700041704078F021884310306946487000BF80
:1055800068468078082188430146684681708078A3
:10559000102188430146684681708078410849009F
:1055A000491C68468170807806218843811C6846C2
:1055B00081706079A2490870A0794870E07988709C
:1055C000207AC870607A0871A07A4871E07A887190
:1055D000207BC871607B0872A07B4872E07B887278
:1055E000207CC872607C0873A07C4873E07C887360
:1055F000207DC873207D0874A07D4874E07D887488
:10560000207EC874142102A802F023FC01A8029095
:105610006846039014210182002141821421818275
:1056200087480690A888AB1D02AA08A9A2DF0FB080
:1056300030BD30B58FB005460C460020079000BF46
:105640006846007F01090901491C68460177007F0F
:10565000F021884310306946087700BF00BF6846D4
:10566000407F01090901491C68464177407FF021CC
:10567000884310306946487700BF6846807F06211E
:105680008843811C684681771C2108A802F0E1FB51
:1056900008A8007808218843014608A8017000780E
:1056A00002218843811C08A80170007810218843DA
:1056B000103008A90870002009900B900C9007A8E2
:1056C0000D9000200E9000BF0121684681715B495A
:1056D000491E818000BF0020009000BF684600780E
:1056E00001090901491C684601700078F0218843CE
:1056F00010306946087000BF00BF68464078010955
:105700000901491C684641704078F02188431030F7
:105710006946487000BF6846807808218843014682
:105720006846817080781021884301466846817000
:10573000807841084900491C6846817080780621BC
:105740008843811C68468170607E3E490870A07E57
:105750004870E07E8870207FC870607F0871A07FED
:105760004871E07F88712020005DC8712120005DB4
:1057700008722220005D48722320005D8872242078
:10578000005DC8722520005D08732620005D487307
:105790002720005D88732820005DC8732920005DE4
:1057A00008742A20005D48742B20005D88742C202A
:1057B000005DC874142102A802F04BFB01A80290FE
:1057C00068460390142101820021418214218182C4
:1057D0001C480690A8882B460E3302AA08A9A2DF0F
:1057E0000FB030BD30B58FB004460D460020079095
:1057F00000BF6846007F01090901491C684601771E
:10580000007FF021884310306946087700BF00BF51
:105810006846407F01090901491C68464177407F7D
:10582000F021884310306946487700BF68460BE096
:105830001A2000201C2000201E20002042470000CB
:1058400090240020A4240020807F06218843811C0E
:10585000684681771C2108A802F0FBFA08A80078A6
:1058600008218843411808A8017000780221884364
:10587000811C08A8017000781021884308A90870CD
:10588000002009900B900C9007A80D9000200E901E
:1058900000BF0121684681719649818000BF0020C8
:1058A000009000BF6846007801090901491C68465C
:1058B00001700078F021884310306946087000BFFD
:1058C00000BF6846407801090901491C68464170DB
:1058D0004078F021884310306946487000BF684620
:1058E00080780821884301466846817080781021BD
:1058F0008843014668468170807841084900491C08
:1059000068468170807806218843811C68468170D2
:105910007948007879490870142102A802F099FAB0
:1059200001A8029068460390012101820021418272
:105930000121818271480690A0882346163302AA6D
:1059400008A9A2DF0FB030BDF8B505460E46306895
:1059500028600020C043E883317949204155022165
:10596000684681706349C91E0180811C644852DF0A
:10597000044600BF2746002F07D000BF61A2FF21C9
:105980005F313846FEF7CCFC00BF00BF2A1D6946D8
:105990000120A0DF0446002C01D02046F8BD31468E
:1059A0002846FFF746FE0446002C01D02046F5E7C6
:1059B00031462846FFF774FD0446002C01D02046EE
:1059C000ECE731462846FFF70DFF0446002C01D0D6
:1059D0002046E3E70020E1E777B585B004460D46B1
:1059E0000026E0882B4607AA0021A4DF0646002EE9
:1059F00002D0304608B070BDE08B5049884217D0C5
:105A00004920005D002813D00020019002900390EF
:105A10000490E18868468180012181710021018123
:105A200007A803900495E08B01A9A6DF064600E0D5
:105A300008263046DEE777B585B004460D460026D9
:105A4000E0892B4607AA0021A4DF0646002E02D0DB
:105A5000304608B070BDE08B3849884217D04920E5
:105A6000005D002813D00020019002900390049064
:105A7000E18968468180012181710021018107A8A7
:105A800003900495E08B01A9A6DF064600E00826F6
:105A90003046DEE777B585B004460D460026E08A3D
:105AA0002B4607AA0021A4DF0646002E02D030466E
:105AB00008B070BDE08B2149884217D04920005DB5
:105AC000002813D000200190029003900490E18AF6
:105AD00068468180012181710021018107A803901E
:105AE0000495E08B01A9A6DF064600E008263046B3
:105AF000DEE700004347000018200020202000209F
:105B0000F47E01002E2E5C2E2E5C2E2E5C437573CF
:105B1000746F6D53444B5C536F757263655C626C5C
:105B2000655C626C655F73657276696365735C6200
:105B30006C655F6932632E6300000000FFFF0000A8
:105B4000FEB505460E4614462078801C1F21081A13
:105B500080B200902178891C881969466DDF019018
:105B60000198002801D00198FEBD2879002808D0AE
:105B7000287969460988884203DA2879009008273D
:105B800000E0092768460088401CC1B22278501CFA
:105B90002070B1542178481C2070775421786846D1
:105BA0000088081820700020DEE7F8B505460C468E
:105BB0002078001D1F2801DD0C20F8BD684669DF34
:105BC0000646002E01D03046F7E703212278501C0C
:105BD0002070A95419212278501C2070A9542078D3
:105BE00041196846008800F08AFA21784018207030
:105BF0000020E2E7F8B505460F4616461C466868E1
:105C0000002801D10720F8BD2078801C2988401881
:105C10001F2801DD0C20F6E72878401CC1B222784D
:105C2000501C2070B1542178481C207077542A8869
:105C300023789819696802F0ADF82078297840181F
:105C400020700020DFE730B503461078C01C1F2805
:105C500001DD0C2030BD02241578681C10704C55F5
:105C60000A241578681C10704C551578681C107043
:105C70004B550020EEE7FFB587B006461D46109C49
:105C80000020069020780590002747E0B900706852
:105C900041180A886846028149884181002203A987
:105CA00002A854DF04900498002802D004980BB096
:105CB000F0BD6846017B099881422ED106980028E4
:105CC00001D0002000E00220019020786946097B85
:105CD0004118019808181F2801DD0C20E7E70698F5
:105CE000002809D12078401C20702278511C089887
:105CF0002170A854012006902078421903A902A817
:105D000054DF04900498002801D00498CFE720784D
:105D10006946097B4018207000BF7F1C3088B8425C
:105D2000B4DC0698002806D021780598401C081A93
:105D3000C1B2059829540020B9E7FFB581B00746E4
:105D400015460A9E009602223846049B0299FFF7E8
:105D500092FF0446002C02D0204605B0F0BD00960C
:105D6000102229463846049BFFF785FF0446002C85
:105D700001D02046F1E70020EFE701460888062819
:105D800008DB08881922D201904205DD0888E04A24
:105D9000904201D0072070474888062808DB4888D1
:105DA0001922D201904205DD4888D94A904201D09B
:105DB0000720F0E70888D64A904208D048889042E9
:105DC00005D008884A88904201DD0720E3E70020DB
:105DD000E1E7F8B506460D4614462078801D1F28D9
:105DE00001D90C20F8BD3046FFF7C7FF0746002F4A
:105DF00001D03846F6E705212278501C2070A954BE
:105E000012212278501C2070A95422785119308810
:105E100000F075F9217840182070227851197088A7
:105E200000F06DF92178401820700020DAE7F8B50D
:105E300005460E4614462879801CC7B22078801C7F
:105E4000C0191F2801DD0C20F8BD781CC1B22278D2
:105E5000501C2070B154FF212278501C2070B15486
:105E600022789119288800F04AF92178401820708A
:105E7000A88800280EDDA868002801D10720E3E7E4
:105E8000AA8823789819A96801F084FF20782979D5
:105E9000401820700020D7E7FEB507460E4614468E
:105EA000786B002801D10720FEBD0020019032E070
:105EB000796B0C22019850430D182879801CC0B2D0
:105EC00000900098401CC1B22278501C2070B15440
:105ED00016212278501C2070B154227891192888FC
:105EE00000F00DF9217840182070A88800280EDDF8
:105EF000A868002801D10720D6E7AA882378981936
:105F0000A96801F047FF207829794018207001988E
:105F1000401CC0B201903820C15D01988142C7DCAD
:105F20000020C1E7F8B504460F46164600250020BC
:105F300030702068002809D0324639462046FFF7E5
:105F4000FFFD0546002D01D02846F8BD60790028E8
:105F500008D031463846FFF728FE0546002D01D00F
:105F60002846F2E7208900280BDD33463A46012116
:105F700020460830FFF73EFE0546002D01D028469A
:105F8000E3E7206900280BD000202169085632463B
:105F90003946FFF758FE0546002D01D02846D4E7C4
:105FA000A08A00280CDD3B46062202212046143040
:105FB0000096FFF7C2FE0546002D01D02846C4E733
:105FC000A08B00280CDD3B460722032120461C3015
:105FD0000096FFF7B2FE0546002D01D02846B4E733
:105FE000A08C00280CDD3B461522142120462430CD
:105FF0000096FFF7A2FE0546002D01D02846A4E733
:10600000E06A002809D032463946E06AFFF7E1FE2F
:106010000546002D01D0284697E7206B002809D0BF
:1060200032463946206BFFF702FF0546002D01D0AE
:1060300028468AE73820005D002809DD32463946C7
:106040002046FFF729FF0546002D01D028467CE7B2
:1060500028467AE701460889002807D0C868002842
:1060600004D0C86800780422104201D1072070478C
:106070000020FCE701460889002801DD0720704761
:106080000020FCE7F3B593B00D4600211291119169
:106090001398002814D01398FFF7DCFF0446002C57
:1060A00002D0204615B0F0BD12AA09A91398FFF737
:1060B00039FF0446002C01D02046F3E709AE00E08A
:1060C0000026002D13D02846FFF7D4FF0446002CED
:1060D00001D02046E6E711AA01A92846FFF722FFD2
:1060E0000446002C01D02046DCE701AF00E0002789
:1060F00010A803793A46017A304662DFD2E70246B9
:106100000A70FF2000021040001248700220704701
:10611000FFFF000030B50346481CC004040C1046C5
:106120008507AD0F01D1012500E00025002D01D12B
:10613000072030BD784802601019784D2860002093
:10614000774D2870774D2870774803807748018015
:106150000020EEE7F7B584B00C467348008884420F
:106160007EDC734D0020039000BF72484068C1057B
:10617000C90D00291ED00A46103A104600280CDA34
:106180006C4B1C3307073F0F083FBF08BF00DB59AC
:106190008707FF0EFB409B090AE0674B03273F027E
:1061A000DB198708BF00DB598707FF0EFB409B09FF
:1061B000D8B200E0042002900298012814D003A86D
:1061C0002BDF0746022F01D172B60CE000BF01970A
:1061D000019F002F06D000BF58A259210198FEF759
:1061E0009FF800BF00BF00BF4D48007800F089F85D
:1061F0004C490978884206D049480578007800F073
:1062000080F8474908700298012814D062B66846A1
:10621000007B2CDF0746022F0CD000BF0197019FA7
:10622000002F06D000BF45A261210198FEF778F843
:1062300000BF00BF00BF3E48854223D0E900364A78
:106240000698126850500498002813D0002C11DDD5
:10625000354909886943314A12688818224600E0A6
:1062600012E0049901F096FDE8002B4909684018F6
:10627000848005E00020E900274A12688918888098
:10628000002600E0042600E00926304607B0F0BDF5
:10629000F8B505460E4617460520009020480078C0
:1062A0002049097888421BD01E480478007800F005
:1062B00028F81C4908701C48008860431749096881
:1062C00040182860E0001449096840188088308030
:1062D000E00011490968085838600020009000BFAC
:1062E0000098F8BD0EB504E068468188009A0298CF
:1062F00090476A4601A902A8FFF7CAFF0028F3D019
:106300000EBD014609480088814201DA481C00E0C0
:106310000020C0B270470000242000202820002068
:106320002D2000202C2000202E20002030200020B6
:10633000FFFF000000ED00E000E100E02E2E5C2EEB
:106340002E5C2E2E5C4E6F7264696353444B5C531B
:106350006F757263655C6170705F636F6D6D6F6E9A
:106360005C6170705F7363686564756C65722E63E1
:106370000000000010B5002819DAFE4A03071B0FC1
:10638000083B9B089B00D2588307DC0EFF23A340E9
:106390009A438B071B0E8407E40EA3401A43F54B68
:1063A0000407240F083CA408A4001A5118E0F24A7C
:1063B00003231B02D21883089B00D2588307DC0EEC
:1063C000FF23A3409A438B071B0E8407E40EA340D0
:1063D0001A43E94B032424021B198408A4001A5110
:1063E00010BD10B50446E548846003211120FFF775
:1063F000C1FF10BD10B501200004E1494860E0492B
:1064000040394860112000F0FBFC112000F0EAFC4C
:106410000120DC4908602F20FDF7A6FE10BD10B555
:10642000112001218140D44A8032116000BF012037
:106430000004D3498860D249403988600120D1499D
:1064400048602F20FDF790FE10BDF0B502462820D1
:106450005043CD4B1B68C118CC480068401C02D18A
:10646000CA48026057E0C9488B6800682824604326
:10647000C54C246800198068834217D8C348006857
:1064800028235843C04B1B68C01880688B68C31A08
:10649000BE48006828246043BB4C24680019836010
:1064A000BA4800684862B948026034E08B68B74D6A
:1064B0002C6828680DE028254543B34E3668AD1991
:1064C000AD685B1B044628254543AF4E3668AD19C1
:1064D000686A451C07D028254543AB4E3668AD1980
:1064E000AD689D42E7D3451C0CD028254543A64EF8
:1064F0003668AD19AD68EE1A28254543A24F3F68AE
:10650000ED19AE608B604862282565439E4E366863
:10651000AD196A6200BFF0BD70B502469B4C2168A0
:10652000084609E0904200D108E00146282444438F
:10653000954D2D686419606A441CF3D100BF441C5A
:1065400000D170BD814209D1904C246828256C434C
:106550008D4D2D686419646A8C4D2C602824444349
:10656000894D2D686419A36828244443864D2D68FD
:106570006419656A28244C43834E3668A419656201
:1065800028244C43804D2D686419606A441C0CD04B
:10659000282444437C4D2D686419A468E5182824F8
:1065A0004443794E3668A419A56000BFC9E710B509
:1065B000112000F01EFC10BD10B5142000F019FCD5
:1065C00010BD70B5044672480068002813D0704AA8
:1065D000216AE06912689047054600BF2E46002EEA
:1065E00007D000BF6BA2FF2155313046FDF798FE62
:1065F00000BF00BF02E0E169206A884770BDF8B5BE
:1066000062480068401C39D0002700F001FC0446B5
:106610006D480168204600F0FEFB06465B480568B1
:1066200011E028206843584909684418A068B0421E
:1066300000D90AE0A068361AA068C719656A204622
:10664000FFF7BFFF00BF681CEBD100BF5F480078B9
:106650005F490978884209D15D480078401CC0B282
:106660005B490870022801D1002008705848007862
:10667000800058490F50FFF79FFF00BFF8BD01464B
:1066800052480078524A127890421DD04F48007804
:10669000401C4E4A107010460078022801D100209C
:1066A00010704A48007880004A4A10580860464AEC
:1066B000086812688018444A10601046006800029A
:1066C000000A1060012070470020086000BFFAE750
:1066D000FEB52E48006801903F48007800903FE0EA
:1066E0000098C0003D4909684418257834E0182016
:1066F000684361680F18681CC5B2A078A84200D131
:1067000000253868022802D0032822D10EE0282173
:10671000786848431C4909684618307E002804D030
:106720007868FFF7F9FE0020307613E00CE0174997
:10673000096828225143144A1268881800210176FA
:10674000124A416A116000BF10480068401CEED137
:1067500000E000BF00BF00BF6078A842C7D100BF03
:106760000098411EC9B200910028B9D107480168BC
:10677000019835E01CED00E000E100E0001501406B
:106780004013014000100140342000204020002030
:10679000542000202E2E5C2E2E5C2E2E5C4E6F720E
:1067A00064696353444B5C536F757263655C6170DD
:1067B000705F636F6D6D6F6E5C6170705F74696D3B
:1067C00065722E630000000044200020502000204D
:1067D0005120002048200020392000203C200020AB
:1067E000814201D00120FEBD0020FCE7F0B5034648
:1067F000002426E0FE4E366828277E43FD4F3F6882
:10680000F01986689E4203D98668F61A86601CE0F5
:1068100086689B1B86683419002686600676F44ECF
:106820003568F34F466A3E604669002E08D00E195F
:106830003602360AC6604669066116684662156009
:1068400000BFEB480068401CD4D100BFF0BDFEB5CE
:106850000746E74800680290E7480078019069E041
:106860000198C000E549096845185CE0781C07D02C
:106870003E4628207043DF4909684418676A23E0D0
:106880002978182359436A6850182978491C2970B7
:106890002978AA78914201D10021297046682821DF
:1068A0007143D44A12688C180168012902D1217EF3
:1068B000002900D037E08168E160C1682161016989
:1068C00061614169216200BFCD49E0680968401AF1
:1068D0000002000ACB49884208D2C949E068096829
:1068E00000F099FA21694018A06011E0C448E168FD
:1068F000006800F090FA009021690098814204D964
:1069000021690098081AA06001E00020A06000BF83
:106910000020E060206101202076801E6062304609
:10692000FFF793FD00BF781CA0D1287869788842D2
:106930009CD100BF0198411EC9B2019100288FD19E
:10694000AB4801680298814201D00120FEBD0020C1
:10695000FCE7FEB50546A6480068401C34D0A448B4
:10696000006828214843A34909684018866800F058
:106970004FFA0290A24804682146029800F04BFAB0
:10698000C01C0190681C01D1FFF734FD0198B04292
:1069900001D2304600E0019804192402240A20465E
:1069A0009949086000BF00F033FA009002990098FE
:1069B00000F031FAC71C2046029900F02CFA8742F9
:1069C00001D9FFF7F4FD01E0FFF729FDFEBDFEB59B
:1069D0000020C04301908A480468854807686846DB
:1069E000FFF74DFE0546FFF773FE0646002D05D066
:1069F00001AA21460098FFF7F9FE01260198FFF74A
:106A000026FF002800D00126002E02D03846FFF7CE
:106A1000A0FFFEBD4170704770B502460B4650782E
:106A2000411C9078884200D100211078884201D121
:106A3000002070BD196050781826704355682C18D6
:106A40002046F6E7FFB581B005460E461746E90039
:106A50006A4A126888186946FFF7DEFF0446002C70
:106A600002D1042005B0F0BD01202060666000F076
:106A7000CFF9A060E760049820610A986061E9009E
:106A80005E4A126888180099FFF7C4FFFFF794FD6B
:106A90000020E7E7F8B504460E46E100574A1268C1
:106AA00088186946FFF7B8FF0546002D01D104207C
:106AB000F8BD022028606E60E100504A1268881814
:106AC0000099FFF7A7FFFFF777FD0020F0E738B543
:106AD0000446E100494A126888186946FFF79CFF9E
:106AE0000546002D01D1042038BD03202860001F79
:106AF0006860E100414A126888180099FFF78AFF30
:106B0000FFF75AFD0020EFE710B500203F4908606D
:106B100000213E4841608160C16000203B4940390E
:106B200008604860FFF76BFD10BD10B5FFF74FFF21
:106B300010BDFFB581B00E4617461C4620468107A2
:106B4000890F01D1012100E00021002902D1072095
:106B500005B0F0BD002C01D10720F9E7FFF75FFC7D
:106B60002B490A9808602B480670224804600025CB
:106B70000CE00021282068431E4A1268115028208A
:106B800068431C4A1268801801766D1CB542F0DB20
:106B9000282070430419032017490870174804601F
:106BA000183400250CE0E900144A12688818002106
:106BB0000170417087704460182179430C196D1C75
:106BC000032DF0DB0020C043094908600020124972
:106BD000087012490870142000F012F903211420E3
:106BE000FFF7C8FB142000F0FDF8019818E0000042
:106BF0004020002034200020392000203C200020AC
:106C000044200020FFFF7F0040150140401101405B
:106C10005420002038200020502000205120002047
:106C2000FFF7DFFB00F0F4F87D49086000208FE7F4
:106C300070B503460C467B480068002801D1082047
:106C400070BD002A01D10720FAE7002B01D10720EF
:106C5000F6E700211CE028204843724D2D68285893
:106C6000002814D10125282048436E4E366835503F
:106C7000282048436B4D2D68401944602820484324
:106C8000684D2D684019C26119600020D8E7491C81
:106C9000654800788142DEDB0420D1E730B500BFD3
:106CA00062484068C205D20D002A1ED01346103B30
:106CB000184600280CDA5D4C1C3405072D0F083DE2
:106CC000AD08AD0064598507ED0EEC40A4090AE05B
:106CD000574C03252D0264198508AD0064598507BA
:106CE000ED0EEC40A409E0B200E00420012802D03F
:106CF000032804D101E0002103E0012101E0022189
:106D000000BF00BF084630BDFEB504460D4616461E
:106D100044480068002801D10820FEBD42480078A0
:106D2000844201D2052D01D20720F6E728206043D6
:106D30003C4909680858012801D00820EDE72820BF
:106D400060433849096840184068012801D1284645
:106D500000E000200746FFF7A1FF3B462A462146F8
:106D600000960190FFF76EFED7E770B504462D48F8
:106D70000068002801D1082070BD2B4800788442AB
:106D800001D30720F8E728206043264909680858FE
:106D9000012801D00820EFE7FFF780FF05462146D4
:106DA000FFF778FEE8E710B51E480068002801D11B
:106DB000082010BDFFF772FF0446FFF788FEF8E7D2
:106DC00010B5044600F024F82060002010BD70B516
:106DD00005460E4614463146284600F01CF8206051
:106DE000002070BDC206D20E01219140104A1160F0
:106DF0007047C206D20E012191400E4A11607047C1
:106E0000C206D20E012191400A4A803211607047B9
:106E10000948406870470246501A0002000A70474D
:106E200044200020342000203820002000ED00E025
:106E300000E100E000E200E0001501400146488862
:106E4000B74A1288904206DB4888B54A5288904279
:106E500001DC012070470020FCE738B50546B14849
:106E60000088B14988423BD0B0480078401CAF4907
:106E70000870AF48007B097888420FDBA849A94811
:106E8000008865DF0446002C07D0A94880690028E7
:106E900003D0A74881692046884721E00020A34904
:106EA0000870A348007C00280FD03B219D48008833
:106EB00066DF0446002C07D09D488069002803D077
:106EC0009B4881692046884700BF9948406900284F
:106ED00006D000200090964841696846884700BF68
:106EE00038BD70B505461C2229469148FDF76CF95E
:106EF000002090490870286800280BD00822884894
:106F0000296800F047FF86486ADF0446002C08D055
:106F1000204670BD82486BDF0446002C01D020461D
:106F2000F7E70020C0437F49088000207F490870B0
:106F3000814A00218148FFF77BFEEAE710B57F48D0
:106F40000068FFF712FF10BD38B57D48FFF776FFE8
:106F5000002829D17748007800280AD07448406971
:106F6000002820D000200090714841696846884779
:106F700019E06E480078002802D16D48456801E0AC
:106F80006B488568002229466C480068FFF7BCFE04
:106F90000446002C07D066488069002803D0644866
:106FA0008169204688470AE061484069002806D088
:106FB000012000905E4841696846884700BF002074
:106FC0005C49087038BD10B50446A0885549088052
:106FD000082221460E315A4800F0DCFE00205349B9
:106FE00008705348C089002801D1FFF7ADFF10BDDC
:106FF00070B505460020C0434A49088000204B492F
:1070000008704E480068FFF7B0FE0446002C07D019
:1070100047488069002803D0454881692046884751
:1070200070BD70B50546AC1D20884149C9898842AC
:1070300020D1208B02281DD100BF00BFA17EE27E9F
:10704000120211430846C107C90F002902D0FFF7F9
:107050007BFF0FE039480068FFF787FE0646002EE9
:1070600007D033488069002803D031488169304611
:10707000884700BF70BD10B504460822A11D3048E6
:1070800000F088FEFFF760FF10BD10B504462088B1
:10709000102806D0112808D012280ED0502810D160
:1070A00007E02046FFF78FFF0CE02046FFF7A0FF28
:1070B00008E02046FFF7B5FF04E02046FFF7DBFFBE
:1070C00000E000BF00BF10BD38B5044608222146CD
:1070D000134800F05FFE12486ADF0546002D1CD100
:1070E0001748FFF7ABFE00280BD1012011490870AB
:1070F0000B490C48008865DF054601200B490870E4
:107100000BE00B484069002806D001200090084899
:1071100041696846884700BF0025284638BD000001
:107120005A20002064200020FFFF00006220002081
:1071300004250020582000205B6E010070200020F4
:107140006620002070B506460C46154629462046A6
:10715000FDF7F4F870BDFFB581B00C4616461F462A
:1071600020468107890F01D1012100E0002100297B
:1071700002D1072005B0F0BD002C01D10720F9E7AE
:1071800025480460254806802548076025490A9857
:1071900008602549019810DF0546002D01D02846DA
:1071A000E8E7162023DFE5E738B500BF1B48008875
:1071B000009069461848006850DF0446052C00D14D
:1071C0000EE0002C06D000BF18A25F212046FDF77C
:1071D000A7F800BF10480068114909688847E5E72B
:1071E00000BF38BD70B50F480068002810D00D48AA
:1071F00000688047044600BF2546002D06D000BF2A
:107200000AA271212846FDF78BF800BF00BF01E0FC
:10721000FFF7CAFF70BD00007C2000208020002006
:107220007420002078200020457101002E2E5C2E55
:107230002E5C2E2E5C4E6F7264696353444B5C531C
:107240006F757263655C626C655C626C655F7374BC
:1072500061636B5F68616E646C65722E6300000031
:1072600070B504468A480068002812D02178884A00
:10727000A06812689047054600BF2E46002E06D033
:1072800000BF84A229213046FDF74AF800BF00BFA5
:1072900002E02078A168884770BDF1B582B0002770
:1072A000029C69468848007800F0D1FA0190019864
:1072B000002800D0FEBD85490098096808400746AF
:1072C00083480068009988430743204638400446B5
:1072D000002C18D0002511E00C2068437D49096876
:1072E0004618317801208840204205D0B068002837
:1072F00002D03046FFF7B4FF681CC5B2764800786C
:107300008542E9DB00BF00BFD4E770B504460D46F7
:1073100072480068FFF729FD0646002E00D070BDB8
:107320002046284302466E4801686C480068FFF713
:10733000EBFC064600BFF2E7FFB583B005460C46FE
:107340001646052E02D2072007B0F0BD6148056041
:1073500061480470624806604D4906980860002044
:107360005A4908605A4908602CE00C2161434819C9
:107370000278019241680291029989000522120760
:1073800007231B02D318019A9200995000BF41783D
:10739000002901D0012100E00021027891404B4AF0
:1073A00012681143494A11604178002901D1012135
:1073B00000E0002102789140454A12681143444A96
:1073C000116000BF2046611ECCB20028CDD1454BD4
:1073D0003F4802683D4801683B4800F063F90746B2
:1073E000002F01D03846AFE73F4A00213B48FFF766
:1073F0001FFCA9E710B537480068002801D1082014
:1074000010BD3148007800F092F9F9E710B5314825
:107410000068002801D1082010BD2B48007800F03A
:10742000F5F90446002C01D02046F5E72B4800680A
:10743000FFF79BFCF0E7F8B507460C460026254809
:107440000068002801D10820F8BD69461E48007870
:1074500000F0FDF90546002D01D02846F4E7012093
:10746000B84006460098064208D1194800683042E4
:1074700001D0012000E00020207007E013480068E0
:10748000304201D0012000E0002020700020DBE726
:10749000982000202E2E5C2E2E5C2E2E5C4E6F72BD
:1074A00064696353444B5C536F757263655C6170D0
:1074B000705F636F6D6D6F6E5C6170705F6275742D
:1074C000746F6E2E630000009C200020902000202E
:1074D0008C2000208420002088200020A020002074
:1074E000942000200B7301009B720100F0B502464E
:1074F0000C46002035E001238340194623460B4209
:107500002ED0D5680D4205D101235B04D5680D430B
:10751000D56004E003231B04D5688D43D5600525A1
:107520002D0707263602AD198600AD59032636040D
:10753000B5430526360707273F02F6198700F551A0
:1075400005252D0707263602AD198600AD591D43C6
:107550000526360707273F02F6198700F55100BFB9
:10756000401C2028C7D3F0BDFEB5E14806690020C5
:10757000E049C863002527E014206843DE49096814
:1075800044180120A840DD49096808421AD0E06883
:10759000C043704021680840074639462046FFF73F
:1075A000A5FFA068B0433840009060683040384084
:1075B000019000990198084303D02269009901982D
:1075C000904700BF681CC5B2CD4800788542D3DB28
:1075D000FEBD10B50146002028E014224A43C64BE8
:1075E0001B689A58012383401A421ED005221207B5
:1075F00007231B02D2188300D25803231B049A438B
:1076000005231B07072424021B1984001A51052295
:10761000120707231B02D2188300D25805231B0729
:10762000072424021B1984001A51401C2028D4D39B
:1076300010BD70B505460C46002C01D1072070BD69
:1076400020468107890F01D1012100E00021002996
:1076500001D10720F3E7A8480460AA48057000207C
:10766000A7490870A5490860A6480078142250432D
:107670000146A148006800F0ECFB0020C043A2498D
:107680008860062001218140A04A116000BF0121CD
:1076900000F0F7F80620012181409D4A116000BFEB
:1076A0000020CCE7F8B504460D4616461F46924822
:1076B0000068002801D10820F8BD002F01D1072063
:1076C000FAE78F4800788F490978884201DB042067
:1076D000F2E7284630438A49097814225143864A02
:1076E000126850508648007814214843824909683E
:1076F0004018456082480078142148437E49096853
:10770000401886607E480078142148437A49096809
:10771000401807617A480078207079480078401C4A
:10772000774908702078FFF754FF0020C4E7F0B5D0
:10773000024671480068002801D10820F0BD704859
:107740000078824201DB0720F8E70020694BD8630C
:107750006748046969480068002802D158066A4BE6
:10776000586001209040654B1B681843634B1860BC
:10777000002314205043604D2D684019C360002140
:1077800040E001238B401846142353435A4D2D6883
:10779000EB58034235D02546054202D003231B0493
:1077A0000EE001235B0414255543534E3668AD1992
:1077B000ED680543142656434F4F3F68F619F560B0
:1077C00005252D0707263602AD198E00AD59032673
:1077D0003604B5430526360707273F02F6198F0002
:1077E000F55105252D0707263602AD198E00AD5936
:1077F0001D430526360707273F02F6198F00F5516E
:1078000000BF491C2029BCD3002097E710B50446CF
:1078100039480068002801D1082010BD3848007898
:10782000844201DB0720F8E72046FFF7D2FE012063
:10783000A04032490968814330480160006800284F
:1078400003D10120C007304988600020E5E710B56A
:10785000024629480068002801D1082010BD2848A8
:107860000078824201DB0720F8E714205043224CC5
:10787000246803191E4800691C6820400860002025
:10788000ECE710B5002819DA224A03071B0F083B62
:107890009B089B00D2588307DC0EFF23A3409A432A
:1078A0008B071B0E8407E40EA3401A43194B0407F1
:1078B000240F083CA408A4001A5118E0144A03231A
:1078C0001B02D21883089B00D2588307DC0EFF23CB
:1078D000A3409A438B071B0E8407E40EA3401A4370
:1078E0000B4B032424021B198408A4001A5110BD59
:1078F0000005005040610040A4200020A820002086
:10790000AD200020AC2000200063004080E200E0B9
:1079100000E100E01CED00E000BF4D488068012858
:10792000FBD100204A4988604A488069C0B270474C
:1079300070B504460D4601260AE02046641E002864
:1079400004DB7D20C000FCF71FFC01E0002603E003
:107950003F4880680128F0D100BF002C05DB0020E3
:107960003B4988603B4880692870304670BD394982
:10797000C86100BF3649C9690129FBD10021344AD9
:10798000D161704730B50346002528466D1C1C5C4C
:1079900005E02046FFF7EBFF28466D1C1C5C002C21
:1079A000F7D130BDF8B507460C4615461E462046B1
:1079B00000F03AF80021304600F03FF82548C46056
:1079C00046610698002809D0384600F02DF80021BD
:1079D000284600F032F81F480561876000201D49E5
:1079E0004031C8620698002806D00846C06A0121C6
:1079F000084318494031C8620898002807D0154844
:107A00004030C06A0E21084312494031C862114912
:107A1000079848620420086001200F4988600860C8
:107A200000200B498860F8BD0121052212070723B9
:107A30001B02D2188300D150704710B58A0005236D
:107A40001B07072424021B1984001A5110BD0000D3
:107A500000210040002500400020004070B500BF1C
:107A600001208005C949886000BF00BF40108860C0
:107A700000BF0420FCF798FBC44800694002C00F17
:107A800006D0C24800698002C00F01D0012426E060
:107A9000BE4800698002C00F20D00024122518E0E3
:107AA00000BF01204005B949C86000BF0420FCF7B1
:107AB0007BFB00BF01204005B449886000BF042063
:107AC000FCF772FBB14800694002C00F01D00124ED
:107AD00003E028466D1E0028E2D100E00024204685
:107AE00070BD10B500BFAA48052109070722120280
:107AF0008918886500BF00BF0521090789184865F6
:107B000000BF00BF01204005A049886000BF00BF42
:107B1000886100BF00BF4000886000BF00BF88616F
:107B200000BFFFF79BFF10BD10B500BF012040054F
:107B30009649886000BF0420FCF736FB00BF9348DD
:107B400000698002C00FFAD0012010BD10B500BF3F
:107B5000012080058D49C86000BF0420FCF724FB8C
:107B6000FFF7E2FF002800D110BD00BF0120800513
:107B70008649886000BF0420FCF716FB0120F3E76C
:107B800070B50646012400BFA0058049886100BF8A
:107B900080251EE000BF012040057C49C86000BF71
:107BA0000420FCF701FB3046284205D000BF01202D
:107BB00080057649886005E000BF01208005734993
:107BC000C86000BFFFF7B0FF002801D1002402E029
:107BD0006D08002DDED100BF00BF012040056B49BC
:107BE000C86000BF0420FCF7DFFA00BF0120800559
:107BF0006649C86100BF0420FCF7D6FAFFF794FF7E
:107C0000044062480069800D01214840044000BFE3
:107C100048055E49C86000BF0420FCF7C5FA00BFF4
:107C2000012080055949886100BF204670BDF8B524
:107C300005460E4600270120009000BF80055349ED
:107C4000C86100BF802417E0FFF76EFF002801D154
:107C5000009013E04D4800694002C00F02D0384642
:107C60002043074600BF012040054849C86000BFC7
:107C70000420FCF799FA6408002CE5D100BF00BF8E
:107C8000012080054149886100BF2F70002E02D07D
:107C900000BFC86005E000BF012080053B49886047
:107CA00000BF0420FCF780FAFFF73EFF002800D158
:107CB000009000BF012040053449C86000BF042087
:107CC000FCF772FA0098F8BD10B500BF01208005DE
:107CD0002E49886000BF0420FCF766FAFFF724FFF6
:107CE000002800D110BD00BF012080052749C860D1
:107CF00000BF0420FCF758FA00BF012040052349CB
:107D0000C86000BF0420FCF74FFA0120EAE7FFB586
:107D100081B007460D4616460124FFF7D5FF044003
:107D20003846FFF72DFF0440F807C00F16D00DE0CE
:107D3000002E05D100212846FFF779FF044004E01A
:107D400001212846FFF773FF04406D1C3046711E69
:107D5000CEB200280FD0002CEAD10CE004E0287845
:107D6000FFF70EFF04406D1C3046711ECEB2002896
:107D700001D0002CF3D10498002801D1002C02D1AD
:107D8000FFF7E4FE0440204605B0F0BD00050050BA
:107D90000C060000F8B5042A2CD3830712D00B7808
:107DA000491C0370401C521E83070BD00B78491CE2
:107DB0000370401C521E830704D00B78491C0370CB
:107DC000401C521E8B079B0F05D0C91ADF002023D1
:107DD000DE1B08C90AE0FCF7F7F9F8BD1D4608C923
:107DE000FD401C46B4402C4310C0121F042AF5D29B
:107DF000F308C91A521EF0D40B78491C0370401CBA
:107E0000521EEAD40B78491C0370401C521EE4D465
:107E100009780170F8BD01E004C0091F0429FBD2F4
:107E20008B0701D50280801CC90700D00270704703
:107E300000290BD0C30702D00270401C491E022942
:107E400004D3830702D50280801C891EE3E7002249
:107E5000EEE70022DFE7704770477047754600F095
:107E600023F8AE46050069465346C008C000854663
:107E700018B020B5FCF7D4F960BC00274908B64615
:107E80000026C0C5C0C5C0C5C0C5C0C5C0C5C0C529
:107E9000C0C5403D49008D4670470446C046C046B7
:107EA0002046FCF75AF900000048704720250020C2
:107EB00001491820ABBEFEE726000200704730B42F
:107EC0007446641E2578641CAB4204D3635D5B007A
:107ED000E31830BC18471D46F8E7000040370100A2
:107EE00040470100669A0C200008218CE411C81D4F
:107EF00000001E7B669A0C200008218CE411C81D2E
:107F000000001E7B247F010000200020B000000044
:107F100004410100D47F0100B0200020D0140000F3
:107F2000204101000024F400FFFF000000000000D9
:107F300000000400140014000100000001001400FF
:107F4000140001000000000000000000000000001C
:107F50000000000000000000000000000000000021
:107F60000000000000000000000000000000000011
:107F70000000000000000000000000000000000001
:107F800000000000000000000000000000000000F1
:107F900000000000000000000000000000000000E1
:107FA00000000000000000000000000000000000D1
:107FB00000000000000000000000000000000000C1
:107FC00000000000000000000000000000000000B1
:047FD00000000000AD
:04000005000140C1F5
:00000001FF
