:020000040001F9
:1040000080340020C1410100D3410100D5410100AD
:1040100000000000000000000000000000000000A0
:10402000000000000000000000000000D741010077
:104030000000000000000000D9410100DB41010048
:10404000DD410100DD410100DD410100DD410100F4
:10405000DD4101000000000089630100DD41010035
:10406000DD410100DD410100DD410100DD410100D4
:10407000DD410100DD410100DD410100DD410100C4
:10408000DD41010029590100DD410100DD41010050
:104090004B590100DD41010005600100DD410100D7
:1040A000DD410100DD4101000000000000000000D2
:1040B0000000000000000000000000000000000000
:1040C00000F002F800F040F80CA030C808382418BE
:1040D0002D18A246671EAB4654465D46AC4201D140
:1040E00000F032F87E460F3E0FCCB6460126334232
:1040F00000D0FB1AA246AB46334318476C2700009A
:104100008C270000103A02D378C878C1FAD8520739
:1041100001D330C830C101D504680C60704700007D
:104120000023002400250026103A01D378C1FBD8D3
:10413000520700D330C100D50B6070471FB5C04691
:10414000C0461FBD10B510BD02F05AFB1146FFF767
:10415000F5FF00F019FB02F072FB03B4FFF7F2FF6A
:1041600003BC02F077FB0000401E00BF00BF00BF91
:1041700000BF00BF00BF00BF00BF00BF00BF00BF47
:1041800000BFF1D17047000070B505460C461646D9
:1041900002E00FCC0FC5103E102EFAD2082E02D32B
:1041A00003CC03C5083E042E07D301CC01C5361F3E
:1041B00003E021782970641C6D1C761EF9D270BD55
:1041C0000A4802680F210A430260094880470948EB
:1041D0000047FEE7FEE7FEE7FEE7FEE7FEE700003A
:1041E00005480649064A074B704700002405004071
:1041F0009F420100C1400100802400208034002043
:10420000802C0020802C00202E482F490860704709
:104210002E48008CC0B2012810D12C48808C000799
:10422000000F0BD12948806AF0210840402805D1B1
:104230002648C06A084201D1012070470020FCE7EF
:104240002248008CC0B2012827D12048808C00076A
:10425000000F22D11D48806AF021084205D11B4879
:10426000C06A084201D1012070471848806AF021D5
:104270000840102805D11548C06A084201D1012024
:10428000F2E71248806AF0210840302805D10F4833
:10429000C06A084201D10120E6E70020E4E710B53A
:1042A000FFF7CEFF002805D009480A494860C81327
:1042B00009498861FFF7ACFF002802D001200749B7
:1042C000886010BD0024F40000200020C00F00F022
:1042D000DFFF07C000050040006C00400006004002
:1042E0000F2000F071FA00BFBFF34F8FFB48FC496D
:1042F000C860BFF34F8F00BF00BFFEE704460D4606
:104300002A462146F748FFF7EBFF00BF00BF032016
:1043100005210907072212028918086200BF00BFA1
:1043200000BF00BF052109078918486200BF00BF10
:1043300000BF00BF052109078918C86300BF00BF7F
:10434000704738B500BFE848E84B052202210090CD
:10435000002001F0FEFA044600BF2546002D05D0DE
:1043600000BFE3A2AE212846FFF7BAFF00BF00BF9F
:1043700038BD3EB500BF6846007801090901491CF7
:10438000009168460078F02188431030009000BF0B
:104390000F22DAA168466CDF044600BF2546002DD7
:1043A00005D000BFD2A2C9212846FFF799FF00BF60
:1043B000002001900290FF219131684681804900E0
:1043C000C18000210181FF219131418101A86ADF73
:1043D000044600BF2546002D05D000BFC4A2D7214A
:1043E0002846FFF77DFF00BF3EBD30B591B00521E7
:1043F0000191C648006800903C2102A802F0FBF938
:1044000002200290012168464173018201A90591B1
:104410000121818469460A91002102A800F042FD31
:10442000044600BF2546002D05D000BFB0A2F421F0
:104430002846FFF755FF00BF11B030BD70471E2062
:10444000B34908800846807840084000401C8870C6
:104450000846807802218843AD49887008468078F4
:104460001C2188430C30AA49887008468078202196
:104470008843A74988700720C870102008717047CA
:1044800070B505462868002810D13B21A148008856
:1044900066DF044600BF2646002E06D000BF94A269
:1044A000FF2120313046FFF71BFF00BF70BD0446DF
:1044B00000BF8FA2FF212B312046FFF711FF30B53F
:1044C00087B01C21684602F096F900200090052074
:1044D000400401908010029003216846017300217E
:1044E000C18101748C4805908C480690684601F0A3
:1044F00008FC044600BF2546002D06D000BF7CA264
:10450000FF2142312846FFF7EBFE00BF07B030BD68
:10451000704730B585B01421684602F06CF900216F
:1045200068460170002001906846017240210182B6
:10453000B421418263DF044600BF2546002D06D02A
:1045400000BF6BA2FF2163312846FFF7C9FE00BF01
:10455000082000F039F905B030BDF8B50446002553
:104560002088142838D006DC10280BD0112813D04E
:10457000132856D11CE0172828D0192840D05228DB
:104580004FD11CE0092000F01FF9082000F021F9AC
:10459000A0886049088045E0092000F01AF9002051
:1045A000C0435C490880002D01D1FFF7B2FF39E01C
:1045B000574A0021574800886FDF054632E0002245
:1045C000114654480088A9DF05462BE03222A11D80
:1045D000534802F0B1F825E0514EB61D3188E0890C
:1045E000814206D1002231464A48008871DF0546E3
:1045F00005E0002211464748008871DF054611E0BA
:10460000A07900280CD1082000F0E3F800BF00BF1B
:10461000032000044349086000BF00BF31DF0546A6
:1046200000E000BF00BF00BF2F46002F06D000BF34
:104630002FA2FF21BC313846FFF752FE00BFF8BD64
:1046400010B504462046FFF788FF204601F02DFCF8
:1046500010BD38B500BF3448344B50223449009067
:104660000D2001F088FC044600BF2546002D06D031
:1046700000BF1FA2FF21DA312846FFF731FE00BF3D
:1046800000BF38BD70B500BF2A4A0A21082000F0DB
:1046900051FC044600BF2546002D06D000BF14A2E1
:1046A000FF21E5312846FFF71BFE00BF00BF70BDAC
:1046B00070B500BF2049012001F0CBFE044600BFC9
:1046C0002546002D06D000BF09A2FF21FE31284655
:1046D000FFF706FE00BF00BF70BD00000400FA0532
:1046E00000ED00E0EFBEADDEEB47010098200020BA
:1046F0002E2E5C6D61696E2E630000004E6F726439
:1047000069635F54656D706C617465006468010075
:10471000062000200420002081440100AF44010055
:10472000B022002000070050DD4701004146010093
:10473000E422002034230020E423002070B500BFD1
:10474000574B584A0121584801F006FD044600BF66
:104750002546002D05D000BF544A55492846FFF78D
:10476000BFFD00BF00BF70BD70B53DDF044600BF98
:104770002546002D06D000BF4C4A4D490D31284634
:10478000FFF7AEFD00BF70BDFFF7BFFDFFF7D9FD1E
:10479000FFF78EFFFFF7D2FFFFF75BFFFFF772FF18
:1047A000FFF7E7FDFFF721FEFFF748FEFFF787FE63
:1047B000FFF745FEFFF7ACFEFFF7ABFE00BF00F0D2
:1047C000A1FCFFF7D1FFFAE701218140394A91604E
:1047D000704701218140374AD160704710B5364A91
:1047E0000021084600F0C6FB10BD7CB504460D460E
:1047F00000940195314A0821684600F0BBFB7CBD5E
:104800007CB504460D460094684605712C4A082183
:1048100000F0B0FB7CBD70B506460C4600BF002C16
:1048200001D1012000E000200546002D04D100BF89
:1048300024A27521FFF754FD00BF01F0C5FB70BD38
:10484000F8B504460D46264600BF082D01D10120CB
:1048500000E000200746002F05D100BF26A2FF215F
:104860001431FFF73DFD00BF316870688847F8BD1F
:10487000F8B504460D46264600BF082D01D101209B
:1048800000E000200746002F04D100BF27A29B2193
:10489000FFF726FD00BF307931688847F8BD00007A
:1048A0000148010066060000F8230020F0460100E0
:1048B0000E020000000500501748010041480100A9
:1048C000714801002E2E5C2E2E5C2E2E5C4E6F72D7
:1048D00064696353444B5C496E636C7564655C62E8
:1048E0006C655C626C655F737461636B5F68616E5D
:1048F000646C65722E6800002E2E5C2E2E5C2E2EAF
:104900005C4E6F7264696353444B5C496E636C75B3
:1049100064655C6170705F636F6D6D6F6E5C61701C
:10492000705F74696D65722E680000002E2E5C2E1B
:104930002E5C2E2E5C4E6F7264696353444B5C494F
:104940006E636C7564655C6170705F636F6D6D6FD5
:104950006E5C6170705F627574746F6E2E680000BB
:10496000FEB505460E4614462078801C1F21081A05
:1049700080B200902178891C881969466DDF01900A
:104980000198002801D00198FEBD2879002808D0A0
:10499000287969460988884203DA2879009008272F
:1049A00000E0092768460088401CC1B22278501CEC
:1049B0002070B1542178481C2070775421786846C3
:1049C0000088081820700020DEE7F8B505460C4680
:1049D0002078001D1F2801DD0C20F8BD684669DF26
:1049E0000646002E01D03046F7E703212278501CFE
:1049F0002070A95419212278501C2070A9542078C5
:104A000041196846008800F08AFA21784018207021
:104A10000020E2E7F8B505460F4616461C466868D2
:104A2000002801D10720F8BD2078801C2988401873
:104A30001F2801DD0C20F6E72878401CC1B222783F
:104A4000501C2070B1542178481C207077542A885B
:104A500023789819696801F06FFE2078297840184A
:104A600020700020DFE730B503461078C01C1F28F7
:104A700001DD0C2030BD02241578681C10704C55E7
:104A80000A241578681C10704C551578681C107035
:104A90004B550020EEE7FFB587B006461D46109C3B
:104AA0000020069020780590002747E0B900706844
:104AB00041180A886846028149884181002203A979
:104AC00002A854DF04900498002802D004980BB088
:104AD000F0BD6846017B099881422ED106980028D6
:104AE00001D0002000E00220019020786946097B77
:104AF0004118019808181F2801DD0C20E7E70698E7
:104B0000002809D12078401C20702278511C089878
:104B10002170A854012006902078421903A902A808
:104B200054DF04900498002801D00498CFE720783F
:104B30006946097B4018207000BF7F1C3088B8424E
:104B4000B4DC0698002806D021780598401C081A85
:104B5000C1B2059829540020B9E7FFB581B00746D6
:104B600015460A9E009602223846049B0299FFF7DA
:104B700092FF0446002C02D0204605B0F0BD0096FE
:104B8000102229463846049BFFF785FF0446002C77
:104B900001D02046F1E70020EFE70146088806280B
:104BA00008DB08881922D201904205DD0888E04A16
:104BB000904201D0072070474888062808DB4888C3
:104BC0001922D201904205DD4888D94A904201D08D
:104BD0000720F0E70888D64A904208D048889042DB
:104BE00005D008884A88904201DD0720E3E70020CD
:104BF000E1E7F8B506460D4614462078801D1F28CB
:104C000001D90C20F8BD3046FFF7C7FF0746002F3B
:104C100001D03846F6E705212278501C2070A954AF
:104C200012212278501C2070A95422785119308802
:104C300000F075F921784018207022785119708899
:104C400000F06DF92178401820700020DAE7F8B5FF
:104C500005460E4614462879801CC7B22078801C71
:104C6000C0191F2801DD0C20F8BD781CC1B22278C4
:104C7000501C2070B154FF212278501C2070B15478
:104C800022789119288800F04AF92178401820707C
:104C9000A88800280EDDA868002801D10720E3E7D6
:104CA000AA8823789819A96801F046FD2078297907
:104CB000401820700020D7E7FEB507460E46144680
:104CC000786B002801D10720FEBD0020019032E062
:104CD000796B0C22019850430D182879801CC0B2C2
:104CE00000900098401CC1B22278501C2070B15432
:104CF00016212278501C2070B154227891192888EE
:104D000000F00DF9217840182070A88800280EDDE9
:104D1000A868002801D10720D6E7AA882378981927
:104D2000A96801F009FD20782979401820700198C0
:104D3000401CC0B201903820C15D01988142C7DC9F
:104D40000020C1E7F8B504460F46164600250020AE
:104D500030702068002809D0324639462046FFF7D7
:104D6000FFFD0546002D01D02846F8BD60790028DA
:104D700008D031463846FFF728FE0546002D01D001
:104D80002846F2E7208900280BDD33463A46012108
:104D900020460830FFF73EFE0546002D01D028468C
:104DA000E3E7206900280BD000202169085632462D
:104DB0003946FFF758FE0546002D01D02846D4E7B6
:104DC000A08A00280CDD3B46062202212046143032
:104DD0000096FFF7C2FE0546002D01D02846C4E725
:104DE000A08B00280CDD3B460722032120461C3007
:104DF0000096FFF7B2FE0546002D01D02846B4E725
:104E0000A08C00280CDD3B461522142120462430BE
:104E10000096FFF7A2FE0546002D01D02846A4E724
:104E2000E06A002809D032463946E06AFFF7E1FE21
:104E30000546002D01D0284697E7206B002809D0B1
:104E400032463946206BFFF702FF0546002D01D0A0
:104E500028468AE73820005D002809DD32463946B9
:104E60002046FFF729FF0546002D01D028467CE7A4
:104E700028467AE701460889002807D0C868002834
:104E800004D0C86800780422104201D1072070477E
:104E90000020FCE701460889002801DD0720704753
:104EA0000020FCE7F3B593B00D460021129111915B
:104EB0001398002814D01398FFF7DCFF0446002C49
:104EC00002D0204615B0F0BD12AA09A91398FFF729
:104ED00039FF0446002C01D02046F3E709AE00E07C
:104EE0000026002D13D02846FFF7D4FF0446002CDF
:104EF00001D02046E6E711AA01A92846FFF722FFC4
:104F00000446002C01D02046DCE701AF00E000277A
:104F100010A803793A46017A304662DFD2E70246AA
:104F20000A70FF20000210400012487002207047F3
:104F3000FFFF000030B50346481CC004040C1046B7
:104F40008507AD0F01D1012500E00025002D01D11D
:104F5000072030BD784802601019784D2860002085
:104F6000774D2870774D2870774803807748018007
:104F70000020EEE7F7B584B00C4673480088844201
:104F80007EDC734D0020039000BF72484068C1056D
:104F9000C90D00291ED00A46103A104600280CDA26
:104FA0006C4B1C3307073F0F083FBF08BF00DB599E
:104FB0008707FF0EFB409B090AE0674B03273F0270
:104FC000DB198708BF00DB598707FF0EFB409B09F1
:104FD000D8B200E0042002900298012814D003A85F
:104FE0002BDF0746022F01D172B60CE000BF0197FC
:104FF000019F002F06D000BF58A259210198FFF74A
:105000006FF900BF00BF00BF4D48007800F089F87D
:105010004C490978884206D049480578007800F064
:1050200080F8474908700298012814D062B6684693
:10503000007B2CDF0746022F0CD000BF0197019F99
:10504000002F06D000BF45A261210198FFF748F963
:1050500000BF00BF00BF3E48854223D0E900364A6A
:105060000698126850500498002813D0002C11DDC7
:10507000354909886943314A12688818224600E098
:1050800012E0049901F058FBE8002B490968401828
:10509000848005E00020E900274A1268891888808A
:1050A000002600E0042600E00926304607B0F0BDE7
:1050B000F8B505460E4617460520009020480078B2
:1050C0002049097888421BD01E480478007800F0F7
:1050D00028F81C4908701C48008860431749096873
:1050E00040182860E0001449096840188088308022
:1050F000E00011490968085838600020009000BF9E
:105100000098F8BD0EB504E068468188009A0298C0
:1051100090476A4601A902A8FFF7CAFF0028F3D00A
:105120000EBD014609480088814201DA481C00E0B2
:105130000020C0B2704700000C200020102000208A
:105140001520002014200020162000201820002008
:10515000FFFF000000ED00E000E100E02E2E5C2EDD
:105160002E5C2E2E5C4E6F7264696353444B5C530D
:105170006F757263655C6170705F636F6D6D6F6E8C
:105180005C6170705F7363686564756C65722E63D3
:105190000000000010B5002819DAFE4A03071B0FB3
:1051A000083B9B089B00D2588307DC0EFF23A340DB
:1051B0009A438B071B0E8407E40EA3401A43F54B5A
:1051C0000407240F083CA408A4001A5118E0F24A6E
:1051D00003231B02D21883089B00D2588307DC0EDE
:1051E000FF23A3409A438B071B0E8407E40EA340C2
:1051F0001A43E94B032424021B198408A4001A5102
:1052000010BD10B50446E548846003211120FFF766
:10521000C1FF10BD10B501200004E1494860E0491C
:1052200040394860112000F0FBFC112000F0EAFC3E
:105230000120DC4908602F20FEF796FF10BD10B555
:10524000112001218140D44A8032116000BF012029
:105250000004D3498860D249403988600120D1498F
:1052600048602F20FEF780FF10BDF0B502462820D1
:105270005043CD4B1B68C118CC480068401C02D17C
:10528000CA48026057E0C9488B6800682824604318
:10529000C54C246800198068834217D8C348006849
:1052A00028235843C04B1B68C01880688B68C31AFA
:1052B000BE48006828246043BB4C24680019836002
:1052C000BA4800684862B948026034E08B68B74D5C
:1052D0002C6828680DE028254543B34E3668AD1983
:1052E000AD685B1B044628254543AF4E3668AD19B3
:1052F000686A451C07D028254543AB4E3668AD1972
:10530000AD689D42E7D3451C0CD028254543A64EE9
:105310003668AD19AD68EE1A28254543A24F3F689F
:10532000ED19AE608B604862282565439E4E366855
:10533000AD196A6200BFF0BD70B502469B4C216892
:10534000084609E0904200D108E001462824444381
:10535000954D2D686419606A441CF3D100BF441C4C
:1053600000D170BD814209D1904C246828256C433E
:105370008D4D2D686419646A8C4D2C60282444433B
:10538000894D2D686419A36828244443864D2D68EF
:105390006419656A28244C43834E3668A4196562F3
:1053A00028244C43804D2D686419606A441C0CD03D
:1053B000282444437C4D2D686419A468E5182824EA
:1053C0004443794E3668A419A56000BFC9E710B5FB
:1053D000112000F01EFC10BD10B5142000F019FCC7
:1053E00010BD70B5044672480068002813D0704A9A
:1053F000216AE06912689047054600BF2E46002EDC
:1054000007D000BF6BA2FF2155313046FEF768FF81
:1054100000BF00BF02E0E169206A884770BDF8B5AF
:1054200062480068401C39D0002700F001FC0446A7
:105430006D480168204600F0FEFB06465B480568A3
:1054400011E028206843584909684418A068B04210
:1054500000D90AE0A068361AA068C719656A204614
:10546000FFF7BFFF00BF681CEBD100BF5F480078AB
:105470005F490978884209D15D480078401CC0B274
:105480005B490870022801D1002008705848007854
:10549000800058490F50FFF79FFF00BFF8BD01463D
:1054A00052480078524A127890421DD04F480078F6
:1054B000401C4E4A107010460078022801D100208E
:1054C00010704A48007880004A4A10580860464ADE
:1054D000086812688018444A10601046006800028C
:1054E000000A1060012070470020086000BFFAE742
:1054F000FEB52E48006801903F48007800903FE0DC
:105500000098C0003D4909684418257834E0182007
:10551000684361680F18681CC5B2A078A84200D122
:1055200000253868022802D0032822D10EE0282165
:10553000786848431C4909684618307E002804D022
:105540007868FFF7F9FE0020307613E00CE0174989
:10555000096828225143144A1268881800210176EC
:10556000124A416A116000BF10480068401CEED129
:1055700000E000BF00BF00BF6078A842C7D100BFF5
:105580000098411EC9B200910028B9D107480168AE
:10559000019835E01CED00E000E100E0001501405D
:1055A00040130140001001401C2000202820002052
:1055B0003C2000202E2E5C2E2E5C2E2E5C4E6F7218
:1055C00064696353444B5C536F757263655C6170CF
:1055D000705F636F6D6D6F6E5C6170705F74696D2D
:1055E00065722E63000000002C200020382000206F
:1055F00039200020302000202120002024200020FD
:10560000814201D00120FEBD0020FCE7F0B5034639
:10561000002426E0FE4E366828277E43FD4F3F6873
:10562000F01986689E4203D98668F61A86601CE0E7
:1056300086689B1B86683419002686600676F44EC1
:105640003568F34F466A3E604669002E08D00E1951
:105650003602360AC66046690661166846621560FB
:1056600000BFEB480068401CD4D100BFF0BDFEB5C0
:105670000746E74800680290E7480078019069E033
:105680000198C000E549096845185CE0781C07D01E
:105690003E4628207043DF4909684418676A23E0C2
:1056A0002978182359436A6850182978491C2970A9
:1056B0002978AA78914201D10021297046682821D1
:1056C0007143D44A12688C180168012902D1217EE5
:1056D000002900D037E08168E160C168216101697B
:1056E00061614169216200BFCD49E0680968401AE3
:1056F0000002000ACB49884208D2C949E06809681B
:1057000000F099FA21694018A06011E0C448E168EE
:10571000006800F090FA009021690098814204D955
:1057200021690098081AA06001E00020A06000BF75
:105730000020E060206101202076801E60623046FB
:10574000FFF793FD00BF781CA0D1287869788842C4
:105750009CD100BF0198411EC9B2019100288FD190
:10576000AB4801680298814201D00120FEBD0020B3
:10577000FCE7FEB50546A6480068401C34D0A448A6
:10578000006828214843A34909684018866800F04A
:105790004FFA0290A24804682146029800F04BFAA2
:1057A000C01C0190681C01D1FFF734FD0198B04284
:1057B00001D2304600E0019804192402240A204650
:1057C0009949086000BF00F033FA009002990098F0
:1057D00000F031FAC71C2046029900F02CFA8742EB
:1057E00001D9FFF7F4FD01E0FFF729FDFEBDFEB58D
:1057F0000020C04301908A480468854807686846CD
:10580000FFF74DFE0546FFF773FE0646002D05D057
:1058100001AA21460098FFF7F9FE01260198FFF73B
:1058200026FF002800D00126002E02D03846FFF7C0
:10583000A0FFFEBD4170704770B502460B46507820
:10584000411C9078884200D100211078884201D113
:10585000002070BD196050781826704355682C18C8
:105860002046F6E7FFB581B005460E461746E9002B
:105870006A4A126888186946FFF7DEFF0446002C62
:1058800002D1042005B0F0BD01202060666000F068
:10589000CFF9A060E760049820610A986061E90090
:1058A0005E4A126888180099FFF7C4FFFFF794FD5D
:1058B0000020E7E7F8B504460E46E100574A1268B3
:1058C00088186946FFF7B8FF0546002D01D104206E
:1058D000F8BD022028606E60E100504A1268881806
:1058E0000099FFF7A7FFFFF777FD0020F0E738B535
:1058F0000446E100494A126888186946FFF79CFF90
:105900000546002D01D1042038BD03202860001F6A
:105910006860E100414A126888180099FFF78AFF21
:10592000FFF75AFD0020EFE710B500203F4908605F
:1059300000213E4841608160C16000203B49403900
:1059400008604860FFF76BFD10BD10B5FFF74FFF13
:1059500010BDFFB581B00E4617461C462046810794
:10596000890F01D1012100E00021002902D1072087
:1059700005B0F0BD002C01D10720F9E7FFF75FFC6F
:105980002B490A9808602B480670224804600025BD
:105990000CE00021282068431E4A1268115028207C
:1059A00068431C4A1268801801766D1CB542F0DB12
:1059B0002820704304190320174908701748046011
:1059C000183400250CE0E900144A126888180021F8
:1059D0000170417087704460182179430C196D1C67
:1059E000032DF0DB0020C043094908600020124964
:1059F000087012490870142000F012F903211420D5
:105A0000FFF7C8FB142000F0FDF8019818E0000033
:105A1000282000201C2000202120002024200020FD
:105A20002C200020FFFF7F00401501404011014065
:105A30003C20002020200020382000203920002099
:105A4000FFF7DFFB00F0F4F87D49086000208FE7E6
:105A500070B503460C467B480068002801D1082039
:105A600070BD002A01D10720FAE7002B01D10720E1
:105A7000F6E700211CE028204843724D2D68285885
:105A8000002814D10125282048436E4E3668355031
:105A9000282048436B4D2D68401944602820484316
:105AA000684D2D684019C26119600020D8E7491C73
:105AB000654800788142DEDB0420D1E730B500BFC5
:105AC00062484068C205D20D002A1ED01346103B22
:105AD000184600280CDA5D4C1C3405072D0F083DD4
:105AE000AD08AD0064598507ED0EEC40A4090AE04D
:105AF000574C03252D0264198508AD0064598507AC
:105B0000ED0EEC40A409E0B200E00420012802D030
:105B1000032804D101E0002103E0012101E002217A
:105B200000BF00BF084630BDFEB504460D46164610
:105B300044480068002801D10820FEBD4248007892
:105B4000844201D2052D01D20720F6E728206043C8
:105B50003C4909680858012801D00820EDE72820B1
:105B600060433849096840184068012801D1284637
:105B700000E000200746FFF7A1FF3B462A462146EA
:105B800000960190FFF76EFED7E770B504462D48EA
:105B90000068002801D1082070BD2B48007884429D
:105BA00001D30720F8E728206043264909680858F0
:105BB000012801D00820EFE7FFF780FF05462146C6
:105BC000FFF778FEE8E710B51E480068002801D10D
:105BD000082010BDFFF772FF0446FFF788FEF8E7C4
:105BE00010B5044600F024F82060002010BD70B508
:105BF00005460E4614463146284600F01CF8206043
:105C0000002070BDC206D20E01219140104A1160E1
:105C10007047C206D20E012191400E4A11607047B2
:105C2000C206D20E012191400A4A803211607047AB
:105C30000948406870470246501A0002000A70473F
:105C40002C2000201C2000202020002000ED00E05F
:105C500000E100E000E200E0001501400146488854
:105C6000B74A1288904206DB4888B54A528890426B
:105C700001DC012070470020FCE738B50546B1483B
:105C80000088B14988423BD0B0480078401CAF49F9
:105C90000870AF48007B097888420FDBA849A94803
:105CA000008865DF0446002C07D0A94880690028D9
:105CB00003D0A74881692046884721E00020A349F6
:105CC0000870A348007C00280FD03B219D48008825
:105CD00066DF0446002C07D09D488069002803D069
:105CE0009B4881692046884700BF99484069002841
:105CF00006D000200090964841696846884700BF5A
:105D000038BD70B505461C2229469148FEF73CFA7D
:105D1000002090490870286800280BD00822884885
:105D2000296800F009FD86486ADF0446002C08D087
:105D3000204670BD82486BDF0446002C01D020460F
:105D4000F7E70020C0437F49088000207F490870A2
:105D5000814A00218148FFF77BFEEAE710B57F48C2
:105D60000068FFF712FF10BD38B57D48FFF776FFDA
:105D7000002829D17748007800280AD07448406963
:105D8000002820D00020009071484169684688476B
:105D900019E06E480078002802D16D48456801E09E
:105DA0006B488568002229466C480068FFF7BCFEF6
:105DB0000446002C07D066488069002803D0644858
:105DC0008169204688470AE061484069002806D07A
:105DD000012000905E4841696846884700BF002066
:105DE0005C49087038BD10B50446A0885549088044
:105DF000082221460E315A4800F09EFC00205349EB
:105E000008705348C089002801D1FFF7ADFF10BDCD
:105E100070B505460020C0434A49088000204B4920
:105E200008704E480068FFF7B0FE0446002C07D00B
:105E300047488069002803D0454881692046884743
:105E400070BD70B50546AC1D20884149C98988429E
:105E500020D1208B02281DD100BF00BFA17EE27E91
:105E6000120211430846C107C90F002902D0FFF7EB
:105E70007BFF0FE039480068FFF787FE0646002EDB
:105E800007D033488069002803D031488169304603
:105E9000884700BF70BD10B504460822A11D3048D8
:105EA00000F04AFCFFF760FF10BD10B504462088E3
:105EB000102806D0112808D012280ED0502810D152
:105EC00007E02046FFF78FFF0CE02046FFF7A0FF1A
:105ED00008E02046FFF7B5FF04E02046FFF7DBFFB0
:105EE00000E000BF00BF10BD38B5044608222146BF
:105EF000134800F021FC12486ADF0546002D1CD132
:105F00001748FFF7ABFE00280BD10120114908709C
:105F10000B490C48008865DF054601200B490870D5
:105F20000BE00B484069002806D00120009008488B
:105F300041696846884700BF0025284638BD0000F3
:105F4000422000204C200020FFFF00004A200020BB
:105F500004240020402000207B5C01005820002009
:105F60004E20002070B506460C46154629462046B0
:105F7000FEF7C4F970BDFFB581B00C4616461F464A
:105F800020468107890F01D1012100E0002100296D
:105F900002D1072005B0F0BD002C01D10720F9E7A0
:105FA00025480460254806802548076025490A9849
:105FB00008602549019810DF0546002D01D02846CC
:105FC000E8E7162023DFE5E738B500BF1B48008867
:105FD000009069461848006850DF0446052C00D13F
:105FE0000EE0002C06D000BF18A25F212046FEF76D
:105FF00077F900BF10480068114909688847E5E74C
:1060000000BF38BD70B50F480068002810D00D489B
:1060100000688047044600BF2546002D06D000BF1B
:106020000AA271212846FEF75BF900BF00BF01E01C
:10603000FFF7CAFF70BD0000642000206820002028
:106040005C20002060200020655F01002E2E5C2E69
:106050002E5C2E2E5C4E6F7264696353444B5C530E
:106060006F757263655C626C655C626C655F7374AE
:1060700061636B5F68616E646C65722E6300000023
:1060800070B504468A480068002812D02178884AF2
:10609000A06812689047054600BF2E46002E06D025
:1060A00000BF84A229213046FEF71AF900BF00BFC5
:1060B00002E02078A168884770BDF1B582B0002762
:1060C000029C69468848007800F0D1FA0190019856
:1060D000002800D0FEBD85490098096808400746A1
:1060E00083480068009988430743204638400446A7
:1060F000002C18D0002511E00C2068437D49096868
:106100004618317801208840204205D0B068002828
:1061100002D03046FFF7B4FF681CC5B2764800785D
:106120008542E9DB00BF00BFD4E770B504460D46E9
:1061300072480068FFF729FD0646002E00D070BDAA
:106140002046284302466E4801686C480068FFF705
:10615000EBFC064600BFF2E7FFB583B005460C46F0
:106160001646052E02D2072007B0F0BD6148056033
:1061700061480470624806604D4906980860002036
:106180005A4908605A4908602CE00C2161434819BB
:106190000278019241680291029989000522120752
:1061A00007231B02D318019A9200995000BF41782F
:1061B000002901D0012100E00021027891404B4AE2
:1061C00012681143494A11604178002901D1012127
:1061D00000E0002102789140454A12681143444A88
:1061E000116000BF2046611ECCB20028CDD1454BC6
:1061F0003F4802683D4801683B4800F063F90746A4
:10620000002F01D03846AFE73F4A00213B48FFF757
:106210001FFCA9E710B537480068002801D1082005
:1062200010BD3148007800F092F9F9E710B5314817
:106230000068002801D1082010BD2B48007800F02C
:10624000F5F90446002C01D02046F5E72B480068FC
:10625000FFF79BFCF0E7F8B507460C4600262548FB
:106260000068002801D10820F8BD69461E48007862
:1062700000F0FDF90546002D01D02846F4E7012085
:10628000B84006460098064208D1194800683042D6
:1062900001D0012000E00020207007E013480068D2
:1062A000304201D0012000E0002020700020DBE718
:1062B000802000202E2E5C2E2E5C2E2E5C4E6F72C7
:1062C00064696353444B5C536F757263655C6170C2
:1062D000705F636F6D6D6F6E5C6170705F6275741F
:1062E000746F6E2E63000000842000207820002050
:1062F000742000206C2000207020002088200020C6
:106300007C2000202B610100BB600100F0B502463B
:106310000C46002035E001238340194623460B42FA
:106320002ED0D5680D4205D101235B04D5680D43FD
:10633000D56004E003231B04D5688D43D560052593
:106340002D0707263602AD198600AD5903263604FF
:10635000B5430526360707273F02F6198700F55192
:1063600005252D0707263602AD198600AD591D43B8
:106370000526360707273F02F6198700F55100BFAB
:10638000401C2028C7D3F0BDFEB5E14806690020B7
:10639000E049C863002527E014206843DE49096806
:1063A00044180120A840DD49096808421AD0E06875
:1063B000C043704021680840074639462046FFF731
:1063C000A5FFA068B0433840009060683040384076
:1063D000019000990198084303D02269009901981F
:1063E000904700BF681CC5B2CD4800788542D3DB1A
:1063F000FEBD10B50146002028E014224A43C64BDA
:106400001B689A58012383401A421ED005221207A6
:1064100007231B02D2188300D25803231B049A437C
:1064200005231B07072424021B1984001A51052287
:10643000120707231B02D2188300D25805231B071B
:10644000072424021B1984001A51401C2028D4D38D
:1064500010BD70B505460C46002C01D1072070BD5B
:1064600020468107890F01D1012100E00021002988
:1064700001D10720F3E7A8480460AA48057000206E
:10648000A7490870A5490860A6480078142250431F
:106490000146A148006800F0AEF90020C043A249BF
:1064A0008860062001218140A04A116000BF0121BF
:1064B00000F0F7F80620012181409D4A116000BFDD
:1064C0000020CCE7F8B504460D4616461F46924814
:1064D0000068002801D10820F8BD002F01D1072055
:1064E000FAE78F4800788F490978884201DB042059
:1064F000F2E7284630438A49097814225143864AF4
:10650000126850508648007814214843824909682F
:106510004018456082480078142148437E49096844
:10652000401886607E480078142148437A490968FB
:10653000401807617A480078207079480078401C3C
:10654000774908702078FFF754FF0020C4E7F0B5C2
:10655000024671480068002801D10820F0BD70484B
:106560000078824201DB0720F8E70020694BD863FE
:106570006748046969480068002802D158066A4BD8
:10658000586001209040654B1B681843634B1860AE
:10659000002314205043604D2D684019C360002132
:1065A00040E001238B401846142353435A4D2D6875
:1065B000EB58034235D02546054202D003231B0485
:1065C0000EE001235B0414255543534E3668AD1984
:1065D000ED680543142656434F4F3F68F619F560A2
:1065E00005252D0707263602AD198E00AD59032665
:1065F0003604B5430526360707273F02F6198F00F4
:10660000F55105252D0707263602AD198E00AD5927
:106610001D430526360707273F02F6198F00F5515F
:1066200000BF491C2029BCD3002097E710B50446C1
:1066300039480068002801D1082010BD384800788A
:10664000844201DB0720F8E72046FFF7D2FE012055
:10665000A040324909688143304801600068002841
:1066600003D10120C007304988600020E5E710B55C
:10667000024629480068002801D1082010BD28489A
:106680000078824201DB0720F8E714205043224CB7
:10669000246803191E4800691C6820400860002017
:1066A000ECE710B5002819DA224A03071B0F083B54
:1066B0009B089B00D2588307DC0EFF23A3409A431C
:1066C0008B071B0E8407E40EA3401A43194B0407E3
:1066D000240F083CA408A4001A5118E0144A03230C
:1066E0001B02D21883089B00D2588307DC0EFF23BD
:1066F000A3409A438B071B0E8407E40EA3401A4362
:106700000B4B032424021B198408A4001A5110BD4A
:1067100000050050406100408C20002090200020A7
:1067200095200020942000200063004080E200E0DB
:1067300000E100E01CED00E0F8B5042A2CD383074B
:1067400012D00B78491C0370401C521E83070BD0DB
:106750000B78491C0370401C521E830704D00B7831
:10676000491C0370401C521E8B079B0F05D0C91A91
:10677000DF002023DE1B08C90AE0FDF705FDF8BD98
:106780001D4608C9FD401C46B4402C4310C0121FD2
:10679000042AF5D2F308C91A521EF0D40B78491C0A
:1067A0000370401C521EEAD40B78491C0370401C35
:1067B000521EE4D409780170F8BD01E004C0091F3D
:1067C0000429FBD28B0701D50280801CC90700D0A9
:1067D0000270704700290BD0C30702D00270401C22
:1067E000491E022904D3830702D50280801C891E1A
:1067F000E3E70022EEE70022DFE7704770477047CB
:10680000754600F023F8AE46050069465346C008B9
:10681000C000854618B020B5FDF7E2FC60BC00273B
:106820004908B6460026C0C5C0C5C0C5C0C5C0C55C
:10683000C0C5C0C5C0C5403D49008D46704704462F
:10684000C046C0462046FDF788FC0000004870475F
:106850002024002001491820ABBEFEE726000200DC
:10686000704700000F180100886801000020002018
:1068700098000000044101002069010098200020D8
:10688000E8130000204101000024F400FFFF000095
:1068900000000000000000000000000000000000F8
:1068A00000000000000000000000000000000000E8
:1068B00000000000000000000000000000000000D8
:1068C00000000000000000000000000000000000C8
:1068D00000000000000000000000000000000000B8
:1068E00000000000000000000000000000000000A8
:1068F0000000000000000000000000000000000098
:106900000000000000000000000000000000000087
:106910000000000000000000000000000000000077
:04000005000140C1F5
:00000001FF
