:020000040001F9
:1040000070370020294201003B4201003D4201007F
:1040100000000000000000000000000000000000A0
:104020000000000000000000000000003F4201000E
:104030000000000000000000414201004342010076
:104040004542010045420100C153010045420100C3
:104050004542010000000000ED540100A955010097
:104060004542010045420100454201004542010030
:104070004542010045420100454201004542010020
:10408000454201009D8B010045420100454201006F
:10409000BF8B0100454201007992010045420100B9
:1040A0004542010045420100000000000000000000
:1040B0000000000000000000000000000000000000
:1040C00000F002F800F044F80CA030C808382418BA
:1040D0002D18A246671EAB4654465D46AC4201D140
:1040E00000F036F87E460F3E0FCCB646012633422E
:1040F00000D0FB1AA246AB4633431847485D000088
:10410000685D0000103A02D378C878C1FAD8520727
:1041100001D330C830C101D504680C60704700007D
:104120000023002400250026103A01D378C1FBD8D3
:10413000520700D330C100D50B6070471FB5C04691
:10414000C0460098019905F074FD1FBD10B510BD63
:1041500005F0C9FD1146FFF7F1FF01F0A4FA05F0E3
:10416000E1FD03B4FFF7F2FF03BC05F00FFE000012
:10417000401E00BF00BF00BF00BF00BF00BF00BFA8
:1041800000BF00BF00BF00BF00BFF1D170470000FB
:10419000401E00BF00BF00BF00BF00BF00BF00BF88
:1041A00000BF00BF00BF00BF00BFF1D170470000DB
:1041B000401E00BF00BF00BF00BF00BF00BF00BF68
:1041C00000BF00BF00BF00BF00BFF1D170470000BB
:1041D000401E00BF00BF00BF00BF00BF00BF00BF48
:1041E00000BF00BF00BF00BF00BFF1D1704700009B
:1041F00070B505460C46164602E00FCC0FC5103EC2
:10420000102EFAD2082E02D303CC03C5083E042E8A
:1042100007D301CC01C5361F03E021782970641C47
:104220006D1C761EF9D270BD0A4802680F210A4340
:1042300002600948804709480047FEE7FEE7FEE7BD
:10424000FEE7FEE7FEE7000005480649064A074B81
:10425000704700002405004007430100C1400100F1
:104260007027002070370020702F0020702F002052
:104270002E482F49086070472E48008CC0B2012894
:1042800010D12C48808C0007000F0BD12948806A80
:10429000F0210840402805D12648C06A084201D1D3
:1042A000012070470020FCE72248008CC0B20128A2
:1042B00027D12048808C0007000F22D11D48806A3A
:1042C000F021084205D11B48C06A084201D10120F3
:1042D00070471848806AF0210840102805D1154819
:1042E000C06A084201D10120F2E71248806AF02139
:1042F0000840302805D10F48C06A084201D101208A
:10430000E6E70020E4E710B5FFF7CEFF002805D070
:1043100009480A494860C81309498861FFF7ACFF9A
:10432000002802D001200749886010BD0024F40055
:1043300000200020C00F00F0DFFF07C00005004094
:10434000006C00400006004000BFBFF34F8FF848EC
:10435000F849C860BFF34F8F00BF00BFFEE70346B8
:104360000C4622461946F448FFF7EEFF00BF00BF97
:10437000032005210907072212028918086200BFDD
:1043800000BF00BF00BF052109078918486200BFB0
:1043900000BF00BF00BF052109078918C86300BF1F
:1043A00000BF704738B500BFE448E54B0622042142
:1043B0000090002004F007FC044600BF2346002BB9
:1043C00005D000BFDFA2BC211846FFF7BDFF00BF2C
:1043D00000BF38BD3EB500BF68460078010909013D
:1043E000491C009168460078F02188431030009005
:1043F00000BF0422D64968466CDF044600BF23464E
:10440000002B05D000BFCFA2D7211846FFF79CFF95
:1044100000BF002001900290082168468180102191
:10442000C18000210181FF219131418101A86ADF12
:104430000446042067DF044600BF2346002B05D056
:1044400000BFC0A2E7211846FFF77EFF00BF3EBDB8
:1044500010B590B0062100913C2101A805F01AFB8F
:1044600002200190012168464172818169460491D0
:10447000002101A803F050FE044600BF2346002B94
:1044800006D000BFAFA2FF2105311846FFF75CFF41
:1044900000BF10B010BD00B5ADB01C2126A805F0BE
:1044A000F9FA00202690012020A90877002004E0D6
:1044B000002227A901310A54401C1428F8DB0020EF
:1044C00005E0A3490A5C27A901310A54401C0528CC
:1044D000F7D326A99F4802F0E8FE30211AA805F07C
:1044E000D9FA00201A90012018A90873002004E0CE
:1044F00000221BA901310A54401C1428F8DB1AA918
:10450000954801F09BFC30210EA805F0C3FA00206D
:104510000E90012008A90877002004E000220FA9CE
:1045200001310A54401C1428F8DB0EA98B4802F014
:1045300031F800200C900D900C90012008A908750E
:10454000002004E000220DA901310A54401C142867
:10455000F8DB0CA9824802F09CFB3021684605F08C
:1045600099FA00200090012069460871002006E0B9
:10457000002201A901310A5414310A54401C1428A4
:10458000F6DB6946774803F027FA2DB000BD1E2000
:10459000754908800846807840084000401C8870B3
:1045A00008468078022188436F49887008468078E1
:1045B0001C2188430C306C49887008468078202183
:1045C0008843694988700720C870102008717047B7
:1045D000034600BF5BA2FF2194311846FFF7B4FEEB
:1045E00010B588B01C2101A805F054FA00200190F4
:1045F0000520C003029003900321684601745548CA
:104600004189684641820121017500200690574882
:10461000079001A804F0AFFC044600BF2346002B1E
:1046200006D000BF47A2FF21AB311846FFF78CFE32
:1046300000BF08B010BD704710B586B0142101A8A6
:1046400005F028FA002168460171002002906846B2
:104650000173402181820021C18201A863DF0446E9
:1046600000BF2346002B06D000BF36A2FF21CC316D
:104670001846FFF769FE00BF082001F08CF806B06D
:1046800010BD02213A4A516000BF3A490968002929
:10469000FBD03749886000BF364909680029FBD044
:1046A0003349496802229143314A516000BF314980
:1046B00009680029FBD0704701222D4B5A6000BFCA
:1046C0002C4A1268002AFBD001600022284B5A6055
:1046D00000BF284A1268002AFBD07047024600201B
:1046E000002103E08B00D3581818491CFF29F9DB7F
:1046F000411C00D10020704770B505460E460024CD
:1047000006E0A200A958A2009019FFF7D5FF641C8B
:10471000FF2CF6DB70BDF0B58FB000200E900D9031
:104720000C9000BF0C98401CC0B20C90002028E0F8
:104730000400FA0500ED00E0EFBEADDEB957010060
:10474000C82000202E2E5C6D61696E2E6300000073
:10475000392000201C260020D424002048250020D9
:10476000A8250020A426002008200020D145010013
:1047700000E5014000E401400021820001AB9950B6
:10478000401C0B28F8DB7324A4023925ED022046D7
:10479000FFF777FF00201DE00146C3179B0F5B1852
:1047A0009B109B0001AEF3580246C617B60FB61811
:1047B000B610B600861B0327BE1BF600F74F3F5C02
:1047C000B740DB19C617B60F7618B610B60001AFA2
:1047D000BB51401C1428DFDB00201FE00146C3173B
:1047E0009B0F5B189B105B1D9B0001AEF3580246AC
:1047F000C617B60FB618B610B600861B0327BE1B29
:10480000F600E74F3F5CB740DB19C617B60F7618C6
:10481000B610761DB60001AFBB51401C1428DDDB7D
:10482000E04800788000E049097849004018DF49F5
:10483000097840180006DE4909884900DD4A1278E7
:10484000891809044118DC4800784001DB4A1278D5
:1048500012018018DA4A12688018000208180B90BA
:10486000002607E0B20001AB9958B2001019FFF71B
:1048700023FF761C0B2EF5DB2046FFF72FFF0E9053
:10488000FF20800020180E99FFF716FF2846FFF73B
:10489000F8FE29462046FFF72FFF2846FFF71EFFA8
:1048A0000D90FF20800028180D99FFF705FF0D9946
:1048B0000E98884203D00C98032800DA32E70FB034
:1048C000F0BD00B587B0BFA103C9069105900020D7
:1048D00004E005A9095CB14A1154401C0528F8D32D
:1048E000052003E00021AD4A1154401C1428F9DBD7
:1048F0001421684605F0CEF8002004E06946095C02
:10490000A74A1154401C1428F8DB0120A74908705D
:104910000020A5490870A3490870A5490860012036
:10492000A44908700020A4490870A4490870A74849
:10493000A349086007B000BDF0B585B07324A40298
:104940003925ED022046FFF7C9FE03902846FFF700
:10495000C5FE02900F2080012018C16B0398814290
:1049600014D10F2080012818C16B029881420DD00C
:104970002846FFF786FE29462046FFF7BDFEFF20AA
:10498000800028180299FFF797FE35E00F2080017C
:104990002018C16B0398814214D00F208001281881
:1049A000C16B029881420DD12046FFF76AFE214675
:1049B0002846FFF7A1FEFF20800028180399FFF783
:1049C0007BFE19E00F2080012018C16B0398814203
:1049D00012D00F2080012818C16B029881420BD0A1
:1049E0002046FFF74EFE2846FFF74BFEFFF769FF14
:1049F000FFF791FE05B0F0BD0020019000BF14E06C
:104A00000146C3179B0F5B189B109B00E35802469F
:104A1000C617B60FB618B610B600861B0327BE1B06
:104A2000F600F3405D4E3354401C1428E8DB0020B0
:104A300016E00146C3179B0F5B189B109E00234690
:104A400014339B590246C617B60FB618B610B600F7
:104A5000861B0327BE1BF600F340514E3354401C07
:104A60001428E6DBA06A010E009168460078400732
:104A7000C00F4C490870684600788007C00F4A494B
:104A8000087068460078C007C00F48490870A06ADF
:104A90000002010E00916846007840104449086009
:104AA00069460878C10F091849104900411A01D018
:104AB000012100E000213F4A1170208D0004010E09
:104AC000009168460078401101D0012000E00020EC
:104AD00039490870694609780811C10F0918491049
:104AE0004900411A01D0012100E00021334A117030
:104AF000684600780007000F3149086001980028D7
:104B000001D0FFF708FE00BF74E73EB50546202040
:104B1000054203D100202849087002E001202649FF
:104B200008701020054203D100202449087002E0DB
:104B30000120224908702807000F21490860084613
:104B40000068030005F048F910090C0F111316183E
:104B50001A1C1E2022242756585B4F2424034FE0A2
:104B60009D2424034CE01A4C4AE0184C48E03B24B6
:104B7000240445E0174C43E0174C41E0174C3FE05C
:104B8000174C3DE0174C3BE0174C39E0174C37E031
:104B90000124A40634E0164C32E000003920002045
:104BA000CC250020262000202520002024200020C5
:104BB0006020002064200020142000201520002008
:104BC00018200020487562300000000000502700C7
:104BD00000B0130000A04E0000F0750000509D00D2
:104BE00000F0EB0000903A0100E0D70100B0AF0305
:104BF00000705F07FC4C03E00124240700E000BFC5
:104C000000BF0120F949C86048600020F8490860E9
:104C1000F8480078F849097821232322019400916B
:104C200002902021222004F0ABFB3EBDF1B58AB0FA
:104C30000A98841D2088F149C988884247D10125F6
:104C4000002008E0ED492031095CED4A125C9142F8
:104C500000D00025401C1428F4DBEA4805700078D9
:104C6000002833D0E84800788000E84909784900F6
:104C70004018E749097841180991012209A9E54836
:104C800001F02EFDDB4800784001DB49097809017D
:104C90004018E14909784018C1B20991012209A9D7
:104CA000DE4801F071F91422DD49D44802F0A3FB7B
:104CB000DC4800784000DC4909784018C1B209910D
:104CC000012209A9D94802F02DFF00BF00BFCD483D
:104CD000007800287ED02088C849C98988420CD134
:104CE000002005E0C5493431095CC54A1154401C17
:104CF0001428F7DB0120CE4908702088BF49C98AF3
:104D0000884219D1002005E0BC494831095CC44AF9
:104D10001154401CB9494831095C0029F4D103E021
:104D20000021BF4A1154401C1428F9DB0121C04A5C
:104D30001170C04A117000BF2088B849C9888842E4
:104D400005D1B64D2035287804F0FFFA00BF208841
:104D5000B249C98A884204D1B0494031087AFFF784
:104D6000D4FE2088AB49C988884275D1A74800780D
:104D7000002872D00A98807F09900027142104A887
:104D800004F088FE002003909F480078002808D097
:104D900039467F1C9F482030405C694608740120DA
:104DA000039078E03846791CCFB29A4920310D5CE7
:104DB0003846791CCFB2974920310E5CF011029031
:104DC000F606F60E2846E90F091849104900691A37
:104DD00027D100E0B8E10196019804F0A5FD00900C
:104DE000002009E039467A1CD7B28A4A2032525C48
:104DF00000990A54411CC8B2B042F3DB0298002863
:104E000001D0012000E000200346324628460099E8
:104E100004F06BFC3220FFF7ABF9009804F0B5FD0D
:104E200038E02846E90F091849104900691A012994
:104E300030D10196019804F077FD0090002004E045
:104E4000002200990A54411CC8B2B042F8DB029813
:104E5000002803D0012002E09AE028E00020034669
:104E600032462846009904F040FC3220FFF780F9D2
:104E7000002009E000990A5C03994B1CDBB2039304
:104E800004AB5A54411CC8B2B042F3DB009804F0A2
:104E90007CFD00BF00BF0998874283DB0398002890
:104EA00004DD04A95B48039A01F0EBFB70E00020ED
:104EB0000890079054480078002806D00899481CAC
:104EC000089054482030405C07900899481C08908E
:104ED00050482030455C0A98817F0898081AC6B26D
:104EE0000996099804F020FD0746002006E008997D
:104EF0000A1848492031895C3954401CB042F6DB1D
:104F00002846E90F091849104900691A07D1404895
:104F1000037832463946284604F0E7FB34E0284659
:104F2000E90F091849104900691A01292CD138489C
:104F3000037832463946284604F0D7FB32480078D9
:104F400000281CD0701C0690069804F0EDFC05901B
:104F5000059907980870012005E0411E7A5C0599C3
:104F60000A54411CC8B2711C8842F6DB721C2948E5
:104F7000059901F086FB059804F007FD04E0324630
:104F80003946244801F07DFB384604F0FEFC00BFA2
:104F900020882049C98A88425AD11E484030007A68
:104FA0000421084203D001201749087002E00020C4
:104FB0001549087017484030007A0221084203D092
:104FC00001201249087002E00020104908701149C0
:104FD0004031087AC10F091849104900411A2BD1F4
:104FE00000200B49087033E0A4DFBE0E0020004013
:104FF0000025004014200020152000201C26002041
:10500000CC2500203820002026200020252000204C
:10501000242000204825002018200020D42400202F
:10502000392000206020002064200020A4260020D9
:105030000720002006200020FE49087AC10F091829
:1050400049104900411A012902D10120FA4908708A
:105050002088FA49C98888420BD1F8482030007866
:10506000002803DD042000F096FB02E0042000F09D
:1050700097FB2088F249C98888422BD10A98857FFE
:105080000995099804F050FC07460895089804F023
:105090004BFC0646002006E0E9492031095C395402
:1050A00000213154401CA842F6DB33463A462946DB
:1050B000E448006804F0D7FB002804D02A463146B3
:1050C000DF4802F000FD304604F05FFC384604F093
:1050D0005CFC00BF2088DA49C98A884234D1D849AB
:1050E0004031087AC10F091849104900411A01D00E
:1050F000012100E00021D44A1170D1484030007AEB
:10510000401006D0012808D002280AD0032810D168
:105110000BE00020CD4908600CE00120CB4908607D
:1051200008E00220C949086004E00320C74908607C
:1051300000E000BF00BFC4480278C44801680020F6
:1051400004F016FBBF4908600BB0F0BD70B586B027
:1051500004460025142101A804F09CFC00200090C6
:10516000208817287ED008DC10280DD0112866D0A2
:1051700013287CD0142877D18DE0192875D05028B9
:1051800074D05228F7D179E00020B1490870092085
:1051900000F001FB082000F003FBA088AD49088067
:1051A000142201A9A348403801F03CFA142201A9B5
:1051B000A048403801F065FA012269469D48403810
:1051C00001F08EFA142201A99D4802F04DFC142230
:1051D00001A99B4802F077FC01226946984802F039
:1051E000A1FC142201A99C4800F070FE142201A920
:1051F000994800F09AFE01226946974800F0C4FEE3
:10520000012269468D4801F08CFD012269468B48D8
:1052100001F0C0FA01226946884801F0B1FD14226C
:1052200001A98E4802F089F8142201A98B4802F0E6
:10523000B3F8142201A9894802F0DDF855E0FFF720
:105240006AFA87480078002800D02ADF092000F099
:10525000A7FA0020C0437F490880002D01D1FFF745
:10526000EBF942E011E002E03EE028E038E07D4A60
:105270000021784800886FDF054636E0002211469D
:1052800074480088A9DF05462FE03222A11D764828
:1052900004F0A1FB29E0744EB61D3188E0898142FB
:1052A00006D1002231466B48008871DF054605E0D3
:1052B000002211466748008871DF054615E0A07995
:1052C00000280CD1082000F06BFA00BF00BF0320BB
:1052D00000046649086000BF00BF31DF054604E0F6
:1052E0002046FFF7A3FC00E000BF00BF00BF2B4635
:1052F000002B05D000BF5E4A5E491846FFF724F830
:1053000000BF06B070BD10B504462146534801F0F9
:10531000B6FD2146504800F01CFB21464548403868
:1053200000F0B5FE2146454801F097FA2146444871
:1053300002F0DDF8204603F0F2FE2046FFF706FFFC
:1053400010BD38B500BF4C484C4B50224C49009022
:105350000D2003F04AFF044600BF2346002B06D071
:1053600000BF434A434924311846FEF7EDFF00BF12
:1053700000BF38BD10B500BF424A0A21082002F024
:1053800013FF044600BF2346002B06D000BF384A57
:1053900038492F311846FEF7D7FF00BF00BF10BDB8
:1053A00010B53DDF044600BF2346002B06D000BFEA
:1053B0002F4A304937311846FEF7C6FF00BF10BDEF
:1053C00030B585B0022024DF012500241421684671
:1053D00004F060FB1CE068460119052003F096FF0D
:1053E0000546002D0CD0641C142C09D118480078F7
:1053F000002804D014226946174800F096FD0024C6
:10540000002D05D1002C03D1022023DF05B030BDD3
:10541000002DE0D1012C08D00D480078002804D0E0
:10542000A2B269460C4800F080FD022023DF00BFD5
:10543000ECE700008825002024200020A82500207B
:10544000A42600205C200020642000206020002092
:105450003820002004200020D42400201C26002016
:10546000062000200820002078230020000700509C
:10547000444701004A040000AB57010007530100F4
:10548000AC230020FC2300200EB5E7480078E74954
:105490000968E74A127821230092019102902322A1
:1054A0002021222003F06CFF0420E2494860032100
:1054B000022028DF022023DF0EBD10B503F0FFFF1E
:1054C00010BD10B5032000040521090707221202B0
:1054D000891848610321062000F026F9062000F013
:1054E00014F90120C007D449486010BD08B5D3485D
:1054F000C06B002802D00020D049C8630520D049E5
:105500000969C140C907C90F00291DD100200090B9
:10551000CC480078002804D001226946CA4801F02E
:1055200039F9062000F0F8F80120400405210907A8
:105530000722120289184861062000F0E6F80120CF
:10554000C007BD4948601EE0C0A00068009006206A
:1055500000F0E2F8BB480078002804D00122694638
:10556000B94801F017F903200004052109070722B3
:10557000120289184861062000F0C7F80120C00710
:10558000AD49486000BF08BD10B5042001210522C7
:10559000120707231B02D2188300D15000BF00F06E
:1055A000FFF8FFF78EFF10BD38B50120A8498860CD
:1055B000A8480068002820D00020A6490860A64816
:1055C000806885B20120A54948604B2109016943E3
:1055D0000846A34904F06AFA4100401884B2211237
:1055E00068460170447097480078002804D0022271
:1055F0006946954801F0C4FB00BF38BD10B50446AC
:105600000120934948609748934948600020914998
:105610000860012090490860072027DF0321072048
:1056200028DF072023DF00208A49086001208B49FA
:10563000086010BD10B500248B4A01218B4803F08F
:1056400041FB044600BF2346002B05D000BF884A1B
:1056500088491846FEF778FE00BF00220121C903E1
:105660008248006803F09AFB044600BF2346002BE3
:1056700006D000BF7E4A7F49C91C1846FEF764FE6B
:1056800000BF10BD10B500207B49086001207B4998
:1056900008700846027878480168002004F068F82D
:1056A0007749086010BDFEF761FEFEF77BFE14200F
:1056B00001218A008306072424021B1984001A5141
:1056C00000BFFFF739F9FFF73CFEFEF783FEFEF758
:1056D000E2FEFEF785FFFEF75AFFFEF7B9FEFFF781
:1056E00049FEFFF7D1FEFFF7E8FEFFF74DFFFFF79A
:1056F000A1FFFFF7C7FFFEF79EFFFEF79DFF00BF6C
:1057000002F03AFEFFF74CFEFAE7C206D20E012184
:1057100091405C4A11607047C206D20E012191404F
:10572000584A80321160704710B5002819DA564A7D
:1057300003071B0F083B9B089B00D2588307DC0E16
:10574000FF23A3409A438B071B0E8407E40EA3405C
:105750001A434D4B0407240F083CA408A4001A5117
:1057600018E0484A03231B02D21883089B00D25832
:105770008307DC0EFF23A3409A438B071B0E84078D
:10578000E40EA3401A433F4B032424021B19840850
:10579000A4001A5110BD01218140294A916070472F
:1057A00001218140264AD160704710B5374A002157
:1057B000084602F019FD10BD7CB504460D46009464
:1057C0000195334A0821684602F00EFD7CBD70B594
:1057D00005460C4600BF002C01D1012000E000204E
:1057E0000346002B04D100BF2AA27521FEF7ACFDB1
:1057F00000BF03F023FD70BD70B504460D4626467C
:1058000000BF082D01D1012000E000200346002B3D
:1058100005D100BF2CA2FF211431FEF795FD00BF7A
:1058200031687068884770BD14200020182000205F
:10583000152000200023004000630040406100402C
:105840000005005038200020A8250020010000009D
:10585000007300400071004000750040007000407F
:10586000FF0300000A080000FD5501001020002081
:1058700044470100A10500006020002064200020B2
:105880005C20002000E100E01CED00E0CF570100AB
:10589000F95701002E2E5C2E2E5C2E2E5C4E6F7260
:1058A00064696353444B5C496E636C7564655C6208
:1058B0006C655C626C655F737461636B5F68616E7D
:1058C000646C65722E6800002E2E5C2E2E5C2E2ECF
:1058D0005C4E6F7264696353444B5C496E636C75D4
:1058E00064655C6170705F636F6D6D6F6E5C61703D
:1058F000705F74696D65722E680000008A88C283CB
:1059000070470022D243C2837047F8B504460E4662
:10591000B51D2F882888E188884205D12346203389
:10592000FE4A00213846A5DF2888E189884205D152
:1059300023463433FA4A00213846A5DF2888E18A15
:10594000884205D123464833F64A00213846A5DF70
:10595000F8BD70B505460C462088102804D01128E3
:1059600007D050280FD109E021462846FFF7C6FF8F
:105970000AE021462846FFF7C4FF05E021462846F5
:10598000FFF7C3FF00E000BF00BF70BD30B58FB0B0
:1059900005460C460020079000BF6846007F0109BD
:1059A0000901491C68460177007FF02188431030C7
:1059B0006946087700BF00BF6846407F01090901BA
:1059C000491C68464177407FF02188431030694682
:1059D000487700BF6846807F06218843811C68465F
:1059E00081771C2108A804F055F808A80078082140
:1059F0008843411808A801700078022188430146B5
:105A000008A8017000781021884308A908700020B8
:105A100009900B900C9007A80D9000200E9000BFED
:105A2000012168468171C049818000BF002000903B
:105A300000BF6846007801090901491C68460170E9
:105A40000078F021884310306946087000BF00BF1D
:105A50006846407801090901491C68464170407850
:105A6000F021884310306946487000BF684680784E
:105A70000821884301466846817080781021884358
:105A80000146684681708078410849006846817007
:105A9000807806218843811C684681706079A3491B
:105AA0000870A0794870E0798870207AC870607AB0
:105AB0000871A07A4871E07A8871207BC871607B98
:105AC0000872A07B4872E07B8872207CC872607C80
:105AD0000873A07C4873E07C8873207DC873207DA8
:105AE0000874A07D4874E07D8874207EC8741421F9
:105AF00002A803F0CFFF01A802906846039014218A
:105B00000182002141821421818288480690A88860
:105B1000AB1D02AA08A9A2DF0FB030BD30B58FB00F
:105B200005460C460020079000BF6846007F01092B
:105B30000901491C68460177007FF0218843103035
:105B40006946087700BF00BF6846407F0109090128
:105B5000491C68464177407FF021884310306946F0
:105B6000487700BF6846807F06218843811C6846CD
:105B700081771C2108A803F08DFF08A80078082170
:105B80008843014608A80170007802218843811CDF
:105B900008A80170007810218843103008A9087007
:105BA000002009900B900C9007A80D9000200E90FB
:105BB00000BF0121684681715B49491E818000BF99
:105BC0000020009000BF6846007801090901491CC7
:105BD000684601700078F0218843103069460870EB
:105BE00000BF00BF6846407801090901491C6846AA
:105BF00041704078F021884310306946487000BFFA
:105C0000684680780821884301466846817080781C
:105C10001021884301466846817080784108490018
:105C2000491C68468170807806218843811C68463B
:105C30008170607E3E490870A07E4870E07E88706A
:105C4000207FC870607F0871A07F4871E07F8871F5
:105C50002020005DC8712120005D08722220005DB7
:105C600048722320005D88722420005DC8722520C0
:105C7000005D08732620005D48732720005D88734F
:105C80002820005DC8732920005D08742A20005D6B
:105C900048742B20005D88742C20005DC87414218A
:105CA00002A803F0F7FE01A80290684603901421B1
:105CB000018200214182142181821D480690A8881A
:105CC0002B460E3302AA08A9A2DF0FB030BD30B5B3
:105CD0008FB004460D460020079000BF6846007F45
:105CE00001090901491C68460177007FF0218843BA
:105CF00010306946087700BF00BF6846407F010941
:105D00000901491C68464177407FF02188431030E3
:105D10006946487700BF6846807F0BE01C20002062
:105D20001E2000202020002042370000AC2400204C
:105D3000C024002006218843811C684681771C21ED
:105D400008A803F0A7FE08A8007808218843411896
:105D500008A80170007802218843811C08A80170FE
:105D600000781021884308A90870002009900B9042
:105D70000C9007A80D9000200E9000BF01216846EE
:105D800081719949818000BF0020009000BF684662
:105D9000007801090901491C684601700078F0216A
:105DA000884310306946087000BF00BF68464078DD
:105DB00001090901491C684641704078F021884377
:105DC00010306946487000BF6846807808218843D3
:105DD00001466846817080781021884301466846F4
:105DE0008170807841084900491C6846817080783C
:105DF00006218843811C684681707C4800784001F8
:105E00007B490978090140187A490870142102A8D1
:105E100003F040FE01A80290684603900121018230
:105E2000002141820121818272480690A088234688
:105E3000163302AA08A9A2DF0FB030BDF8B5054697
:105E40000E46306828600020C043E883317949203D
:105E50004155022168468170DD2189010180811C44
:105E6000654852DF044600BF2746002F07D000BF19
:105E700062A2FF215F313846FEF766FA00BF00BF1D
:105E80002A1D69460120A0DF0446002C01D02046CF
:105E9000F8BD31462846FFF741FE0446002C01D0EC
:105EA0002046F5E731462846FFF770FD0446002CF2
:105EB00001D02046ECE731462846FFF708FF0446AC
:105EC000002C01D02046E3E70020E1E777B585B05C
:105ED00004460D460026E0882B4607AA0021A4DFD1
:105EE0000646002E02D0304608B070BDE08B514906
:105EF000884217D04920005D002813D0002001906F
:105F0000029003900490E1886846818001218171AC
:105F10000021018107A803900495E08B01A9A6DF69
:105F2000064600E008263046DEE777B585B0044631
:105F30000D460026E0892B4607AA0021A4DF06466D
:105F4000002E02D0304608B070BDE08B394988423F
:105F500017D04920005D002813D000200190029046
:105F600003900490E18968468180012181710021BC
:105F7000018107A803900495E08B01A9A6DF0646DE
:105F800000E008263046DEE777B585B004460D46CA
:105F90000026E08A2B4607AA0021A4DF0646002E31
:105FA00002D0304608B070BDE08B2249884217D03D
:105FB0004920005D002813D000200190029003903A
:105FC0000490E18A6846818001218171002101816C
:105FD00007A803900495E08B01A9A6DF064600E020
:105FE00008263046DEE7000043370000142000207A
:105FF0001520002022200020F49D01002E2E5C2E72
:106000002E5C2E2E5C437573746F6D53444B5C5342
:106010006F757263655C626C655C626C655F73650D
:106020007276696365735C626C655F756172742E0C
:1060300063000000FFFF00008A88C28370470022CF
:10604000D243C2837047F8B504460E46B51D2F886B
:106050002888E188884205D123462033FE4A002162
:106060003846A5DF2888E189884205D123463433A4
:10607000FA4A00213846A5DF2888E18A884205D1FE
:1060800023464833F64A00213846A5DFF8BD70B5EF
:1060900005460C462088102804D0112807D0502827
:1060A0000FD109E021462846FFF7C6FF0AE0214646
:1060B0002846FFF7C4FF05E021462846FFF7C3FF47
:1060C00000E000BF00BF70BD30B58FB005460C4684
:1060D0000020079000BF6846007F01090901491CA4
:1060E00068460177007FF0218843103069460877C1
:1060F00000BF00BF6846407F01090901491C68468E
:106100004177407FF021884310306946487700BFCF
:106110006846807F06218843811C684681771C2160
:1061200008A803F0B7FC08A8007804218843011DE3
:1061300008A80170007808218843411808A8017058
:10614000007802218843014608A8017000781021D8
:10615000884308A90870002009900B900C9007A8AC
:106160000D9000200E9000BF012168468171BD494D
:10617000818000BF0020009000BF684600780109C0
:106180000901491C684601700078F02188431030ED
:106190006946087000BF00BF6846407801090901E0
:1061A000491C684641704078F021884310306946A8
:1061B000487000BF684680780821884301466846D9
:1061C000817080781021884301466846817080780C
:1061D0004108490068468170807806218843811C07
:1061E000684681706079A0490870A0794870E079AC
:1061F0008870207AC870607A0871A07A4871E07A55
:106200008871207BC871607B0872A07B4872E07B3C
:106210008872207CC872607C0873A07C4873E07C24
:106220008873207DC873207D0874A07D4874E07D4C
:106230008874207EC874142102A803F02BFC01A8E6
:1062400002906846039014210182002141821421AA
:10625000818285480690A888AB1D02AA08A9A2DF02
:106260000FB030BD30B58FB005460C46002007900A
:1062700000BF6846007F01090901491C6846017793
:10628000007FF021884310306946087700BF00BFC7
:106290006846407F01090901491C68464177407FF3
:1062A000F021884310306946487700BF6846807FF8
:1062B00006218843811C684681771C2108A803F0C9
:1062C000E9FB08A8007808218843014608A8017066
:1062D000007802218843811C08A8017000781021F1
:1062E0008843103008A90870002009900B900C908A
:1062F00007A80D9000200E9000BF01216846817113
:106300005849491E818000BF0020009000BF6846A8
:10631000007801090901491C684601700078F021E4
:10632000884310306946087000BF00BF6846407857
:1063300001090901491C684641704078F0218843F1
:1063400010306946487000BF68468078082188434D
:10635000014668468170807810218843014668466E
:106360008170807841084900491C684681708078B6
:1063700006218843811C68468170607E3B49087015
:10638000A07E4870E07E8870207FC870607F0871B2
:10639000A07F4871E07F88712020005DC8712120B6
:1063A000005D08722220005D48722320005D887223
:1063B0002420005DC8722520005D08732620005D42
:1063C00048732720005D88732820005DC87329204A
:1063D000005D08742A20005D48742B20005D8874DD
:1063E0002C20005DC874142102A803F053FB01A8FF
:1063F00002906846039014210182002141821421F9
:1064000081821A480690A8882B460E3302AA08A952
:10641000A2DF0FB030BD30B58FB004460D4600206E
:10642000079000BF6846007F01090901491C6846C2
:106430000177007FF021884310306946087700BF5C
:1064400000BF6846407F01090901491C6846417741
:10645000407FF02188430BE0282000202A200020E4
:106460002C20002042470000202500203425002059
:1064700010306946487700BF6846807F0621884310
:10648000811C684681771C2108A803F003FB08A83B
:10649000007808218843411808A80170007802217B
:1064A0008843811C08A8017000781021884308A93E
:1064B0000870002009900B900C9007A80D90002008
:1064C0000E9000BF0121684681719D49818000BF07
:1064D0000020009000BF6846007801090901491CAE
:1064E000684601700078F0218843103069460870D2
:1064F00000BF00BF6846407801090901491C684691
:1065000041704078F021884310306946487000BFE0
:106510006846807808218843014668468170807803
:1065200010218843014668468170807841084900FF
:10653000491C68468170807806218843801C694622
:10654000887080480078800009D07F48007840003B
:1065500005D07E480078002801D0012000E000200E
:106560007B490870142102A803F094FA01A8029054
:10657000684603900121018200214182012181822C
:1065800073480690A0882346163302AA08A9A2DF02
:106590000FB030BDF8B505460E46306828600020C3
:1065A000C043E88331794920415502216846817012
:1065B0006349C91E0180811C664852DF044600BF42
:1065C0002746002F07D000BF63A2FF216231384663
:1065D000FDF7BAFE00BF00BF2A1D69460120A0DFFB
:1065E0000446002C01D02046F8BD31462846FFF76E
:1065F00039FE0446002C01D02046F5E731462846F6
:10660000FFF762FD0446002C01D02046ECE731463E
:106610002846FFF700FF0446002C01D02046E3E7A0
:106620000020E1E777B585B004460D460026E088F6
:106630002B4607AA0021A4DF0646002E02D03046D2
:1066400008B070BDE08B5249884217D04920005DE8
:10665000002813D000200190029003900490E1885C
:1066600068468180012181710021018107A8039082
:106670000495E08B01A9A6DF064600E00826304617
:10668000DEE777B585B004460D460026E0892B4647
:1066900007AA0021A4DF0646002E02D0304608B02B
:1066A00070BDE08B3A49884217D04920005D002830
:1066B00013D000200190029003900490E189684675
:1066C0008180012181710021018107A80390049537
:1066D000E08B01A9A6DF064600E008263046DEE78B
:1066E00077B585B004460D460026E08A2B4607AAFA
:1066F0000021A4DF0646002E02D0304608B070BD4F
:10670000E08B2349884217D04920005D002813D030
:1067100000200190029003900490E18A68468180F5
:10672000012181710021018107A803900495E08B6C
:1067300001A9A6DF064600E008263046DEE7000095
:106740004347000026200020252000202420002090
:106750002E200020049E01002E2E5C2E2E5C2E2E5C
:106760005C437573746F6D53444B5C536F75726308
:10677000655C626C655C626C655F736572766963AB
:1067800065735C626C655F6932632E6300000000B4
:10679000FFFF000077B585B004460D460026E0896E
:1067A0002B4607AA0021A4DF0646002E02D0304661
:1067B00008B070BDE08BFE49884217D02320005DF1
:1067C000002813D000200190029003900490E189EA
:1067D00068468180012181710021018107A8039011
:1067E0000495E08B01A9A6DF064600E008263046A6
:1067F000DEE770B504460D462A462146ED48FFF710
:10680000C9FF70BD8A88C28370470022D243C28309
:106810007047F8B504460E46B51D2F882888E188D4
:10682000884205D123462033E34A00213846A5DFBC
:106830002888E189884205D123462133DF4A002197
:106840003846A5DF2888E18A884205D123462233CD
:10685000DB4A00213846A5DFF8BD70B505460C4679
:106860002088102804D0112807D050280FD109E023
:1068700021462846FFF7C6FF0AE021462846FFF7D3
:10688000C4FF05E021462846FFF7C3FF00E000BF34
:1068900000BF70BD30B58FB004460D460020079094
:1068A00000BF6846007F01090901491C684601775D
:1068B000007FF021884310306946087700BF00BF91
:1068C0006846407F01090901491C68464177407FBD
:1068D000F021884310306946487700BF6846807FC2
:1068E00006218843811C684681771C2108A803F093
:1068F000D1F808A8007808218843411808A8017039
:10690000007802218843014608A801700078102110
:10691000884308A90870002009900B900C9007A8E4
:106920000D9000200E9000BF012168468171A5499D
:10693000818000BF0020009000BF684600780109F8
:106940000901491C684601700078F0218843103025
:106950006946087000BF00BF684640780109090118
:10696000491C684641704078F021884310306946E0
:10697000487000BF68468078082188430146684611
:106980008170807810218843014668468170807844
:1069900041084900491C6846817080780621884377
:1069A000811C68468170687987490870142102A8A3
:1069B00003F070F801A8029068460390012101825B
:1069C00000214182012181827F480690A088A31D79
:1069D00002AA08A9A2DF0FB030BD30B58FB00446BF
:1069E0000D460020079000BF6846007F010909019D
:1069F000491C68460177007FF021884310306946C2
:106A0000087700BF00BF6846407F01090901491CA3
:106A100068464177407FF0218843103069464877C7
:106A200000BF6846807F06218843811C68468177C5
:106A30001C2108A803F02EF808A800780821884334
:106A4000014608A80170007802218843811C08A82B
:106A50000170007810218843103008A908700020C8
:106A600009900B900C9007A80D9000200E9000BF8D
:106A70000121684681715349491E818000BF002071
:106A8000009000BF6846007801090901491C68466A
:106A900001700078F021884310306946087000BF0B
:106AA00000BF6846407801090901491C68464170E9
:106AB0004078F021884310306946487000BF68462E
:106AC00080780821884301466846817080781021CB
:106AD0008843014668468170807841084900491C16
:106AE00068468170807806218843811C68468170E1
:106AF000A87936490870142102A802F0CBFF01A83A
:106B00000290684603900121018200214182012107
:106B100081822E480690A08823460E3302AA08A937
:106B2000A2DF0FB030BD30B58FB004460D46002057
:106B3000079000BF6846007F01090901491C6846AB
:106B40000177007FF021884310306946087700BF45
:106B500000BF6846407F01090901491C684641772A
:106B6000407FF021884310306946487700BF68466F
:106B7000807F06218843811C684681771C2108A8F4
:106B800002F088FF08A8007808218843014608A879
:106B90000170007802218843811C08A801700078E8
:106BA00010218843103008A90870002009900FE0D8
:106BB000FFFF0000A8250020302000203220002008
:106BC0003420002042570000942500203620002069
:106BD0000B900C9007A80D9000200E9000BF012193
:106BE000684681717E49818000BF0020009000BF0F
:106BF0006846007801090901491C6846017000785F
:106C0000F021884310306946087000BF00BF684615
:106C1000407801090901491C684641704078F0211B
:106C2000884310306946487000BF68468078082164
:106C30008843014668468170807810218843014668
:106C400068468170807841084900491C6846817017
:106C5000807806218843811C684681700020614944
:106C60000870142102A802F015FF01A802906846DE
:106C70000390022101820021418202218182594830
:106C80000690A0882346163302AA08A9A2DF0FB0F7
:106C900030BDF8B505460E46306828600020C04378
:106CA000E8833179232041550221684681704C499F
:106CB000C91E0180811C4C4852DF044600BF274694
:106CC000002F07D000BF49A2FF213C313846FDF715
:106CD0003BFB00BF00BF2A1D69460120A0DF044620
:106CE000002C01D02046F8BD31462846FFF775FE3E
:106CF0000446002C01D02046F5E731462846FFF730
:106D0000C9FD0446002C01D02046ECE73146284658
:106D1000FFF709FF0446002C01D02046E3E70020DE
:106D2000E1E777B585B004460D460026E0882B469E
:106D300007AA0021A4DF0646002E02D0304608B084
:106D400070BDE08B3749884217D02320005D0028B2
:106D500013D000200190029003900490E1886846CF
:106D60008180012181710021018107A80390049590
:106D7000E08B01A9A6DF064600E008263046DEE7E4
:106D800077B585B004460D460026E08A2B4607AA53
:106D90000021A4DF0646002E02D0304608B070BDA8
:106DA000E08B2049884217D02320005D002813D0B3
:106DB00000200190029003900490E18A684681804F
:106DC000012181710021018107A803900495E08BC6
:106DD00001A9A6DF064600E008263046DEE70000EF
:106DE0004357000037200020149E01002E2E5C2EF9
:106DF0002E5C2E2E5C437573746F6D53444B5C5345
:106E00006F757263655C626C655C626C655F73650F
:106E10007276696365735C626C655F6469672E6333
:106E200000000000FFFF00008A88C2837047002234
:106E3000D243C2837047F8B504460E46B51D2F886D
:106E40002888E188884205D123462033FE4A002164
:106E50003846A5DF2888E189884205D123463433A6
:106E6000FA4A00213846A5DF2888E18A884205D100
:106E700023464833F64A00213846A5DFF8BD70B5F1
:106E800005460C462088102804D0112807D0502829
:106E90000FD109E021462846FFF7C6FF0AE0214648
:106EA0002846FFF7C4FF05E021462846FFF7C3FF49
:106EB00000E000BF00BF70BD30B58FB004460D4686
:106EC0000020079000BF6846007F01090901491CA6
:106ED00068460177007FF0218843103069460877C3
:106EE00000BF00BF6846407F01090901491C684690
:106EF0004177407FF021884310306946487700BFD2
:106F00006846807F06218843811C684681771C2162
:106F100008A802F0BFFD08A800780821884341189E
:106F200008A80170007802218843014608A8017072
:106F300000781021884308A90870002009900B9060
:106F40000C9007A80D9000200E9000BF012168460C
:106F50008171C049818000BF0020009000BF684659
:106F6000007801090901491C684601700078F02188
:106F7000884310306946087000BF00BF68464078FB
:106F800001090901491C684641704078F021884395
:106F900010306946487000BF6846807808218843F1
:106FA0000146684681708078102188430146684612
:106FB0008170807841084900684681708078062198
:106FC0008843811C68468170142102A802F062FD8A
:106FD00001A8029068460390142101820021418299
:106FE000142181829C480690A088A31D02AA08A9AA
:106FF000A2DF0FB030BD30B58FB004460D46002083
:10700000079000BF6846007F01090901491C6846D6
:107010000177007FF021884310306946087700BF70
:1070200000BF6846407F01090901491C6846417755
:10703000407FF021884310306946487700BF68469A
:10704000807F06218843811C684681771C2108A81F
:1070500002F020FD08A8007808218843411808A8FC
:107060000170007802218843014608A80170007869
:107070001021884308A90870002009900B900C90FB
:1070800007A80D9000200E9000BF01216846817175
:107090007049491C818000BF0020009000BF6846F5
:1070A000007801090901491C684601700078F02147
:1070B000884310306946087000BF00BF68464078BA
:1070C00001090901491C684641704078F021884354
:1070D00010306946487000BF6846807808218843B0
:1070E00001466846817080781021884301466846D1
:1070F0008170807841084900491C68468170807819
:1071000006218843811C68468170142102A802F080
:10711000C1FC01A80290684603901421018200215D
:107120004182142181824D480690A08823460E3367
:1071300002AA08A9A2DF0FB030BD30B58FB0044657
:107140000D460020079000BF6846007F0109090135
:10715000491C68460177007FF0218843103069465A
:10716000087700BF00BF6846407F01090901491C3C
:1071700068464177407FF021884310306946487760
:1071800000BF6846807F06218843811C684681775E
:107190001C2108A802F07EFC08A80078082188437A
:1071A000411808A80170007802218843811C08A8B2
:1071B000017000781021884308A908700020099008
:1071C0000B900C9007A80D9000200E9000BF01219D
:1071D000684681711F49891C818000BF0020009092
:1071E00000BF6846007801090901491C6846017022
:1071F0000078F021884310306946087000BF00BF56
:107200006846407801090901491C68464170407888
:10721000F021884310306946487000BF6846807886
:107220000821884301466846817080781021884390
:10723000014668468170807841084900491C6846CB
:107240008170807806210BE04E2000205020002025
:107250005220002041270000E0250020F4250020D6
:107260008843801C69468870002004E0691D095C21
:10727000784A1154401C1428F8DB142102A802F0AB
:1072800009FC01A8029068460390142101820021A4
:107290004182142181826F480690A08823461633CC
:1072A00002AA08A9A2DF0FB030BDF8B505460E4608
:1072B000306828600020C043E88331795C20415564
:1072C0000221684681709D2189010180811C6248EC
:1072D00052DF044600BF2746002F07D000BF5FA241
:1072E000FF2136313846FDF72FF800BF00BF2A1DB9
:1072F00069460120A0DF0446002C01D02046F8BDDD
:1073000031462846FFF7D8FD0446002C01D0204620
:10731000F5E731462846FFF76EFE0446002C01D003
:107320002046ECE731462846FFF707FF0446002CCD
:1073300001D02046E3E70020E1E777B585B00446B9
:107340000D460026E0882B4607AA0021A4DF06464A
:10735000002E02D0304608B070BDE08B4D49884207
:1073600017D05C20005D002813D00020019002900F
:1073700003900490E1886846818001218171002199
:10738000018107A803900495E08B01A9A6DF0646BA
:1073900000E008263046DEE777B585B004460D46A6
:1073A0000026E0892B4607AA0021A4DF0646002E0E
:1073B00002D0304608B070BDE08B3649884217D005
:1073C0005C20005D002813D0002001900290039003
:1073D0000490E18968468180012181710021018149
:1073E00007A803900495E08B01A9A6DF064600E0FC
:1073F00008263046DEE777B585B004460D46002600
:10740000E08A2B4607AA0021A4DF0646002E02D000
:10741000304608B070BDE08B1E49884217D05C2012
:10742000005D002813D0002001900290039004908A
:10743000E18A68468180012181710021018107A8CC
:1074400003900495E08B01A9A6DF064600E008261C
:107450003046DEE708260020249E01002E2E5C2EFA
:107460002E5C2E2E5C437573746F6D53444B5C53CE
:107470006F757263655C626C655C626C655F736599
:107480007276696365735C626C655F636F6E662EAE
:1074900063000000FFFF00008A88C283704700225B
:1074A000D243C2837047F8B504460E46B51D2F88F7
:1074B0002888E188884205D123462033FE4A0021EE
:1074C0003846A5DF2888E189884205D12346343330
:1074D000FA4A00213846A5DF2888E18A884205D18A
:1074E00023464833F64A00213846A5DFF8BD70B57B
:1074F00005460C462088102804D0112807D05028B3
:107500000FD109E021462846FFF7C6FF0AE02146D1
:107510002846FFF7C4FF05E021462846FFF7C3FFD2
:1075200000E000BF00BF70BD30B58FB005460C460F
:107530000020079000BF6846007F01090901491C2F
:1075400068460177007FF02188431030694608774C
:1075500000BF00BF6846407F01090901491C684619
:107560004177407FF021884310306946487700BF5B
:107570006846807F06218843811C684681771C21EC
:1075800008A802F087FA08A8007808218843411863
:1075900008A80170007802218843014608A80170FC
:1075A00000781021884308A90870002009900B90EA
:1075B0000C9007A80D9000200E9000BF0121684696
:1075C0008171C049818000BF0020009000BF6846E3
:1075D000007801090901491C684601700078F02112
:1075E000884310306946087000BF00BF6846407885
:1075F00001090901491C684641704078F02188431F
:1076000010306946487000BF68468078082188437A
:10761000014668468170807810218843014668469B
:107620008170807841084900491C684681708078E3
:1076300006218843811C684681706079A2490870E0
:10764000A0794870E0798870207AC870607A0871F3
:10765000A07A4871E07A8871207BC871607B0872DB
:10766000A07B4872E07B8872207CC872607C0873C3
:10767000A07C4873E07C8873207DC873207D0874EB
:10768000A07D4874E07D8874207EC874142102A80F
:1076900002F000FA01A802906846039014210182CA
:1076A000002141821421818287480690A888AB1D61
:1076B00002AA08A9A2DF0FB030BD30B58FB00546D1
:1076C0000C460020079000BF6846007F01090901B1
:1076D000491C68460177007FF021884310306946D5
:1076E000087700BF00BF6846407F01090901491CB7
:1076F00068464177407FF0218843103069464877DB
:1077000000BF6846807F06218843811C68468177D8
:107710001C2108A802F0BEF908A8007808218843B7
:10772000014608A80170007802218843811C08A83E
:107730000170007810218843103008A908700020DB
:1077400009900B900C9007A80D9000200E9000BFA0
:107750000121684681715B49491E818000BF00207C
:10776000009000BF6846007801090901491C68467D
:1077700001700078F021884310306946087000BF1E
:1077800000BF6846407801090901491C68464170FC
:107790004078F021884310306946487000BF684641
:1077A00080780821884301466846817080781021DE
:1077B0008843014668468170807841084900491C29
:1077C00068468170807806218843811C68468170F4
:1077D000607E3E490870A07E4870E07E8870207F01
:1077E000C870607F0871A07F4871E07F8871202099
:1077F000005DC8712120005D08722220005D487282
:107800002320005D88722420005DC8722520005D61
:1078100008732620005D48732720005D88732820A8
:10782000005DC8732920005D08742A20005D48743B
:107830002B20005D88742C20005DC874142102A8E0
:1078400002F028F901A802906846039014210182F1
:1078500000214182142181821C480690A8882B4671
:107860000E3302AA08A9A2DF0FB030BD30B58FB029
:1078700004460D460020079000BF6846007F0109BE
:107880000901491C68460177007FF02188431030C8
:107890006946087700BF00BF6846407F01090901BB
:1078A000491C68464177407FF02188431030694683
:1078B000487700BF68460BE0542000205620002087
:1078C00058200020426700007C26002090260020DF
:1078D000807F06218843811C684681771C2108A887
:1078E00002F0D8F808A8007808218843411808A8B1
:1078F0000170007802218843811C08A8017000787B
:107900001021884308A90870002009900B900C9062
:1079100007A80D9000200E9000BF012168468171DC
:107920009849818000BF0020009000BF6846007821
:1079300001090901491C684601700078F02188435B
:1079400010306946087000BF00BF684640780109E2
:107950000901491C684641704078F0218843103085
:107960006946487000BF6846807808218843014610
:10797000684681708078102188430146684681708E
:10798000807841084900491C68468170807806214A
:107990008843811C684681707B48007840007B49A1
:1079A000097840187A490870142102A802F072F888
:1079B00001A80290684603900121018200214182C2
:1079C0000121818272480690A0882346163302AABC
:1079D00008A9A2DF0FB030BDF8B505460E463068E5
:1079E00028600020C043E8833179492041550221B5
:1079F000684681706349C91E0180811C654852DF59
:107A0000044600BF2746002F07D000BF62A2FF2117
:107A100061313846FCF798FC00BF00BF2A1D69465B
:107A20000120A0DF0446002C01D02046F8BD3146DD
:107A30002846FFF742FE0446002C01D02046F5E719
:107A400031462846FFF770FD0446002C01D0204641
:107A5000ECE731462846FFF709FF0446002C01D029
:107A60002046E3E70020E1E777B585B004460D4600
:107A70000026E0882B4607AA0021A4DF0646002E38
:107A800002D0304608B070BDE08B5149884217D013
:107A90004920005D002813D000200190029003903F
:107AA0000490E18868468180012181710021018173
:107AB00007A803900495E08B01A9A6DF064600E025
:107AC00008263046DEE777B585B004460D46002629
:107AD000E0892B4607AA0021A4DF0646002E02D02B
:107AE000304608B070BDE08B3949884217D0492034
:107AF000005D002813D000200190029003900490B4
:107B0000E18968468180012181710021018107A8F6
:107B100003900495E08B01A9A6DF064600E0082645
:107B20003046DEE777B585B004460D460026E08A8C
:107B30002B4607AA0021A4DF0646002E02D03046BD
:107B400008B070BDE08B2249884217D04920005D03
:107B5000002813D000200190029003900490E18A45
:107B600068468180012181710021018107A803906D
:107B70000495E08B01A9A6DF064600E00826304602
:107B8000DEE7000043670000602000206420002042
:107B90005A200020349E01002E2E5C2E2E5C2E2EAC
:107BA0005C437573746F6D53444B5C536F757263B4
:107BB000655C626C655C626C655F73657276696357
:107BC00065735C626C655F7370692E630000000012
:107BD000FFFF0000FEB505460E4614462078801CC7
:107BE0001F21081A80B200902178891C88196946E3
:107BF0006DDF01900198002801D00198FEBD287921
:107C0000002808D0287969460988884203DA28794B
:107C10000090082700E0092768460088401CC1B290
:107C20002278501C2070B1542178481C2070775461
:107C3000217868460088081820700020DEE7F8B533
:107C400005460C462078001D1F2801DD0C20F8BDDC
:107C5000684669DF0646002E01D03046F7E703216B
:107C60002278501C2070A95419212278501C2070B1
:107C7000A954207841196846008800F08AFA2178D2
:107C8000401820700020E2E7F8B505460F4616467A
:107C90001C466868002801D10720F8BD2078801CA8
:107CA000298840181F2801DD0C20F6E72878401CA1
:107CB000C1B22278501C2070B1542178481C207029
:107CC00077542A8823789819696801F084FE20780F
:107CD0002978401820700020DFE730B5034610787F
:107CE000C01C1F2801DD0C2030BD02241578681C43
:107CF00010704C550A241578681C10704C55157876
:107D0000681C10704B550020EEE7FFB587B00646A3
:107D10001D46109C0020069020780590002747E023
:107D2000B900706841180A88684602814988418113
:107D3000002203A902A854DF04900498002802D06E
:107D400004980BB0F0BD6846017B099881422ED1A2
:107D50000698002801D0002000E002200190207841
:107D60006946097B4118019808181F2801DD0C207D
:107D7000E7E70698002809D12078401C2070227877
:107D8000511C08982170A8540120069020784219AF
:107D900003A902A854DF04900498002801D0049895
:107DA000CFE720786946097B4018207000BF7F1C10
:107DB0003088B842B4DC0698002806D021780598AF
:107DC000401C081AC1B2059829540020B9E7FFB534
:107DD00081B0074615460A9E009602223846049B4B
:107DE0000299FFF792FF0446002C02D0204605B00E
:107DF000F0BD0096102229463846049BFFF785FF08
:107E00000446002C01D02046F1E70020EFE70146B0
:107E10000888062808DB08881922D201904205DD6F
:107E20000888E04A904201D0072070474888062819
:107E300008DB48881922D201904205DD4888D94ADA
:107E4000904201D00720F0E70888D64A904208D037
:107E50004888904205D008884A88904201DD072072
:107E6000E3E70020E1E7F8B506460D461446207822
:107E7000801D1F2801D90C20F8BD3046FFF7C7FF31
:107E80000746002F01D03846F6E705212278501C1E
:107E90002070A95412212278501C2070A9542278F5
:107EA0005119308800F075F9217840182070227837
:107EB0005119708800F06DF9217840182070002069
:107EC000DAE7F8B505460E4614462879801CC7B295
:107ED0002078801CC0191F2801DD0C20F8BD781CFB
:107EE000C1B22278501C2070B154FF212278501C5E
:107EF0002070B15422789119288800F04AF921782D
:107F000040182070A88800280EDDA868002801D13C
:107F10000720E3E7AA8823789819A96801F05BFD98
:107F200020782979401820700020D7E7FEB5074651
:107F30000E461446786B002801D10720FEBD0020B4
:107F4000019032E0796B0C22019850430D1828798A
:107F5000801CC0B200900098401CC1B22278501C16
:107F60002070B15416212278501C2070B154227810
:107F70009119288800F00DF9217840182070A88800
:107F800000280EDDA868002801D10720D6E7AA88BE
:107F900023789819A96801F01EFD207829794018E6
:107FA00020700198401CC0B201903820C15D01983A
:107FB0008142C7DC0020C1E7F8B504460F461646EB
:107FC0000025002030702068002809D0324639464C
:107FD0002046FFF7FFFD0546002D01D02846F8BDDD
:107FE0006079002808D031463846FFF728FE05465C
:107FF000002D01D02846F2E7208900280BDD33460A
:108000003A46012120460830FFF73EFE0546002D86
:1080100001D02846E3E7206900280BD00020216921
:10802000085632463946FFF758FE0546002D01D066
:108030002846D4E7A08A00280CDD3B460622022110
:10804000204614300096FFF7C2FE0546002D01D0F1
:108050002846C4E7A08B00280CDD3B4607220321FD
:1080600020461C300096FFF7B2FE0546002D01D0D9
:108070002846B4E7A08C00280CDD3B4615221421CD
:10808000204624300096FFF7A2FE0546002D01D0C1
:108090002846A4E7E06A002809D032463946E06A5B
:1080A000FFF7E1FE0546002D01D0284697E7206B3B
:1080B000002809D032463946206BFFF702FF0546FB
:1080C000002D01D028468AE73820005D002809DD10
:1080D000324639462046FFF729FF0546002D01D0DC
:1080E00028467CE728467AE701460889002807D019
:1080F000C868002804D0C86800780422104201D162
:10810000072070470020FCE701460889002801DDB0
:10811000072070470020FCE7F3B593B00D4600211F
:10812000129111911398002814D01398FFF7DCFFD7
:108130000446002C02D0204615B0F0BD12AA09A9B1
:108140001398FFF739FF0446002C01D02046F3E7CF
:1081500009AE00E00026002D13D02846FFF7D4FF1B
:108160000446002C01D02046E6E711AA01A92846C2
:10817000FFF722FF0446002C01D02046DCE701AFC8
:1081800000E0002710A803793A46017A304662DF02
:10819000D2E702460A70FF20000210400012487029
:1081A00002207047FFFF000030B50346481CC004A2
:1081B000040C10468507AD0F01D1012500E0002514
:1081C000002D01D1072030BD784802601019784D8C
:1081D00028600020774D2870774D287077480380FD
:1081E000774801800020EEE7F7B584B00C4673486D
:1081F000008884427EDC734D0020039000BF7248EB
:108200004068C105C90D00291ED00A46103A104623
:1082100000280CDA6C4B1C3307073F0F083FBF08E0
:10822000BF00DB598707FF0EFB409B090AE0674B45
:1082300003273F02DB198708BF00DB598707FF0EC2
:10824000FB409B09D8B200E004200290029801286C
:1082500014D003A82BDF0746022F01D172B60CE021
:1082600000BF0197019F002F06D000BF58A25921DF
:108270000198FCF769F800BF00BF00BF4D480078C7
:1082800000F089F84C490978884206D049480578B9
:10829000007800F080F8474908700298012814D04F
:1082A00062B66846007B2CDF0746022F0CD000BF69
:1082B0000197019F002F06D000BF45A261210198C0
:1082C000FCF742F800BF00BF00BF3E48854223D004
:1082D000E900364A0698126850500498002813D0D6
:1082E000002C11DD354909886943314A1268881824
:1082F000224600E012E0049901F06DFBE8002B49F2
:1083000009684018848005E00020E900274A1268C7
:1083100089188880002600E0042600E009263046FF
:1083200007B0F0BDF8B505460E461746052000908B
:10833000204800782049097888421BD01E480478DC
:10834000007800F028F81C4908701C480088604339
:108350001749096840182860E00014490968401866
:1083600080883080E0001149096808583860002092
:10837000009000BF0098F8BD0EB504E06846818803
:10838000009A029890476A4601A902A8FFF7CAFF1F
:108390000028F3D00EBD014609480088814201DA69
:1083A000481C00E00020C0B2704700006820002098
:1083B0006C200020712000207020002072200020FE
:1083C00074200020FFFF000000ED00E000E100E06D
:1083D0002E2E5C2E2E5C2E2E5C4E6F7264696353C3
:1083E000444B5C536F757263655C6170705F636F63
:1083F0006D6D6F6E5C6170705F7363686564756CE2
:1084000065722E630000000010B5002819DAFE4ADC
:1084100003071B0F083B9B089B00D2588307DC0E09
:10842000FF23A3409A438B071B0E8407E40EA3404F
:108430001A43F54B0407240F083CA408A4001A5162
:1084400018E0F24A03231B02D21883089B00D2587B
:108450008307DC0EFF23A3409A438B071B0E840780
:10846000E40EA3401A43E94B032424021B19840899
:10847000A4001A5110BD10B50446E54884600321DC
:108480001120FFF7C1FF10BD10B501200004E14924
:108490004860E04940394860112000F0FBFC1120A1
:1084A00000F0EAFC0120DC4908602F20FBF770FE99
:1084B00010BD10B5112001218140D44A80321160D5
:1084C00000BF01200004D3498860D2494039886048
:1084D0000120D14948602F20FBF75AFE10BDF0B5AE
:1084E000024628205043CD4B1B68C118CC48006879
:1084F000401C02D1CA48026057E0C9488B68006836
:1085000028246043C54C246800198068834217D82A
:10851000C348006828235843C04B1B68C0188068B4
:108520008B68C31ABE48006828246043BB4C24688B
:1085300000198360BA4800684862B948026034E0B4
:108540008B68B74D2C6828680DE028254543B34E4D
:108550003668AD19AD685B1B044628254543AF4E10
:108560003668AD19686A451C07D028254543AB4ECF
:108570003668AD19AD689D42E7D3451C0CD028255F
:108580004543A64E3668AD19AD68EE1A2825454319
:10859000A24F3F68ED19AE608B60486228256543A5
:1085A0009E4E3668AD196A6200BFF0BD70B50246D6
:1085B0009B4C2168084609E0904200D108E0014642
:1085C00028244443954D2D686419606A441CF3D1F6
:1085D00000BF441C00D170BD814209D1904C246879
:1085E00028256C438D4D2D686419646A8C4D2C6070
:1085F00028244443894D2D686419A36828244443E2
:10860000864D2D686419656A28244C43834E36686C
:10861000A419656228244C43804D2D686419606A52
:10862000441C0CD0282444437C4D2D686419A46854
:10863000E51828244443794E3668A419A56000BF84
:10864000C9E710B5112000F01EFC10BD10B51420B4
:1086500000F019FC10BD70B504467248006800288F
:1086600013D0704A216AE06912689047054600BF3E
:108670002E46002E07D000BF6BA2FF215531304699
:10868000FBF762FE00BF00BF02E0E169206A884795
:1086900070BDF8B562480068401C39D0002700F072
:1086A00001FC04466D480168204600F0FEFB0646CA
:1086B0005B48056811E02820684358490968441858
:1086C000A068B04200D90AE0A068361AA068C719AD
:1086D000656A2046FFF7BFFF00BF681CEBD100BFF3
:1086E0005F4800785F490978884209D15D48007881
:1086F000401CC0B25B490870022801D100200870FC
:1087000058480078800058490F50FFF79FFF00BF7E
:10871000F8BD014652480078524A127890421DD066
:108720004F480078401C4E4A1070104600780228CE
:1087300001D1002010704A48007880004A4A105841
:108740000860464A086812688018444A106010465B
:1087500000680002000A10600120704700200860D5
:1087600000BFFAE7FEB52E48006801903F48007848
:1087700000903FE00098C0003D4909684418257802
:1087800034E01820684361680F18681CC5B2A078EF
:10879000A84200D100253868022802D0032822D13F
:1087A0000EE02821786848431C4909684618307E45
:1087B000002804D07868FFF7F9FE0020307613E037
:1087C0000CE01749096828225143144A1268881896
:1087D00000210176124A416A116000BF104800680A
:1087E000401CEED100E000BF00BF00BF6078A8428F
:1087F000C7D100BF0098411EC9B200910028B9D16D
:1088000007480168019835E01CED00E000E100E058
:108810000015014040130140001001407820002065
:1088200084200020982000202E2E5C2E2E5C2E2EE0
:108830005C4E6F7264696353444B5C536F75726333
:10884000655C6170705F636F6D6D6F6E5C617070A1
:108850005F74696D65722E6300000000882000203F
:1088600094200020952000208C2000207D200020D6
:1088700080200020814201D00120FEBD0020FCE7C5
:10888000F0B50346002426E0FE4E366828277E43D6
:10889000FD4F3F68F01986689E4203D98668F61A34
:1088A00086601CE086689B1B8668341900268660FB
:1088B0000676F44E3568F34F466A3E604669002EF0
:1088C00008D00E193602360AC66046690661166877
:1088D0004662156000BFEB480068401CD4D100BF61
:1088E000F0BDFEB50746E74800680290E74800780B
:1088F000019069E00198C000E549096845185CE00D
:10890000781C07D03E4628207043DF490968441888
:10891000676A23E02978182359436A685018297830
:10892000491C29702978AA78914201D10021297027
:10893000466828217143D44A12688C1801680129BD
:1089400002D1217E002900D037E08168E160C16852
:108950002161016961614169216200BFCD49E0681F
:108960000968401A0002000ACB49884208D2C94966
:10897000E068096800F099FA21694018A06011E0E8
:10898000C448E168006800F090FA009021690098FE
:10899000814204D921690098081AA06001E00020F2
:1089A000A06000BF0020E060206101202076801ED2
:1089B00060623046FFF793FD00BF781CA0D1287895
:1089C000697888429CD100BF0198411EC9B20191CB
:1089D00000288FD1AB4801680298814201D0012064
:1089E000FEBD0020FCE7FEB50546A6480068401C19
:1089F00034D0A448006828214843A3490968401896
:108A0000866800F04FFA0290A24804682146029856
:108A100000F04BFAC01C0190681C01D1FFF734FD37
:108A20000198B04201D2304600E0019804192402B6
:108A3000240A20469949086000BF00F033FA0090EC
:108A40000299009800F031FAC71C2046029900F004
:108A50002CFA874201D9FFF7F4FD01E0FFF729FD69
:108A6000FEBDFEB50020C04301908A4804688548D9
:108A700007686846FFF74DFE0546FFF773FE06469A
:108A8000002D05D001AA21460098FFF7F9FE012626
:108A90000198FFF726FF002800D00126002E02D003
:108AA0003846FFF7A0FFFEBD4170704770B5024623
:108AB0000B465078411C9078884200D100211078F4
:108AC000884201D1002070BD19605078182670438B
:108AD00055682C182046F6E7FFB581B005460E46CE
:108AE0001746E9006A4A126888186946FFF7DEFFF0
:108AF0000446002C02D1042005B0F0BD0120206006
:108B0000666000F0CFF9A060E760049820610A98E1
:108B10006061E9005E4A126888180099FFF7C4FF97
:108B2000FFF794FD0020E7E7F8B504460E46E100A4
:108B3000574A126888186946FFF7B8FF0546002DA6
:108B400001D10420F8BD022028606E60E100504A87
:108B5000126888180099FFF7A7FFFFF777FD00203C
:108B6000F0E738B50446E100494A126888186946BA
:108B7000FFF79CFF0546002D01D1042038BD0320DE
:108B80002860001F6860E100414A12688818009957
:108B9000FFF78AFFFFF75AFD0020EFE710B500202E
:108BA0003F49086000213E4841608160C16000206B
:108BB0003B49403908604860FFF76BFD10BD10B5B8
:108BC000FFF74FFF10BDFFB581B00E4617461C469C
:108BD00020468107890F01D1012100E000210029F1
:108BE00002D1072005B0F0BD002C01D10720F9E724
:108BF000FFF75FFC2B490A9808602B480670224853
:108C0000046000250CE00021282068431E4A1268F9
:108C10001150282068431C4A1268801801766D1C88
:108C2000B542F0DB2820704304190320174908706F
:108C300017480460183400250CE0E900144A126853
:108C400088180021017041708770446018217943B1
:108C50000C196D1C032DF0DB0020C043094908608E
:108C600000201249087012490870142000F012F90F
:108C700003211420FFF7C8FB142000F0FDF8019831
:108C800018E0000084200020782000207D200020B3
:108C90008020002088200020FFFF7F004015014039
:108CA00040110140982000207C20002094200020CA
:108CB00095200020FFF7DFFB00F0F4F87D49086005
:108CC00000208FE770B503460C467B4800680028FB
:108CD00001D1082070BD002A01D10720FAE7002B3E
:108CE00001D10720F6E700211CE028204843724DFF
:108CF0002D682858002814D10125282048436E4E9D
:108D000036683550282048436B4D2D684019446023
:108D100028204843684D2D684019C2611960002021
:108D2000D8E7491C654800788142DEDB0420D1E7A2
:108D300030B500BF62484068C205D20D002A1ED07F
:108D40001346103B184600280CDA5D4C1C3405070E
:108D50002D0F083DAD08AD0064598507ED0EEC40C0
:108D6000A4090AE0574C03252D0264198508AD00BB
:108D700064598507ED0EEC40A409E0B200E0042040
:108D8000012802D0032804D101E0002103E00121E1
:108D900001E0022100BF00BF084630BDFEB5044619
:108DA0000D46164644480068002801D10820FEBD43
:108DB00042480078844201D2052D01D20720F6E70F
:108DC000282060433C4909680858012801D0082040
:108DD000EDE72820604338490968401840680128B9
:108DE00001D1284600E000200746FFF7A1FF3B46DF
:108DF0002A46214600960190FFF76EFED7E770B530
:108E000004462D480068002801D1082070BD2B4879
:108E10000078844201D30720F8E7282060432649E0
:108E200009680858012801D00820EFE7FFF780FF04
:108E300005462146FFF778FEE8E710B51E480068B2
:108E4000002801D1082010BDFFF772FF0446FFF78C
:108E500088FEF8E710B5044600F024F820600020F2
:108E600010BD70B505460E4614463146284600F042
:108E70001CF82060002070BDC206D20E0121914076
:108E8000104A11607047C206D20E012191400E4A6D
:108E900011607047C206D20E012191400A4A803209
:108EA000116070470948406870470246501A000236
:108EB000000A704788200020782000207C200020B5
:108EC00000ED00E000E100E000E200E000150140FC
:108ED00001464888B74A1288904206DB4888B54A5E
:108EE0005288904201DC012070470020FCE738B531
:108EF0000546B1480088B14988423BD0B048007867
:108F0000401CAF490870AF48007B097888420FDBEE
:108F1000A849A948008865DF0446002C07D0A94865
:108F20008069002803D0A74881692046884721E04E
:108F30000020A3490870A348007C00280FD03B21E3
:108F40009D48008866DF0446002C07D09D48806954
:108F5000002803D09B4881692046884700BF994874
:108F60004069002806D00020009096484169684674
:108F7000884700BF38BD70B505461C222946914878
:108F8000FBF736F9002090490870286800280BD0BC
:108F900008228848296800F01EFD86486ADF0446DA
:108FA000002C08D0204670BD82486BDF0446002CA0
:108FB00001D02046F7E70020C0437F490880002009
:108FC0007F490870814A00218148FFF77BFEEAE76C
:108FD00010B57F480068FFF712FF10BD38B57D4817
:108FE000FFF776FF002829D17748007800280AD0BB
:108FF00074484069002820D00020009071484169E1
:109000006846884719E06E480078002802D16D480C
:10901000456801E06B488568002229466C48006875
:10902000FFF7BCFE0446002C07D066488069002884
:1090300003D064488169204688470AE06148406956
:10904000002806D0012000905E48416968468847A4
:1090500000BF00205C49087038BD10B50446A088E8
:1090600055490880082221460E315A4800F0B3FCC9
:109070000020534908705348C089002801D1FFF7E8
:10908000ADFF10BD70B505460020C0434A490880B9
:1090900000204B4908704E480068FFF7B0FE0446B8
:1090A000002C07D047488069002803D045488169D3
:1090B0002046884770BD70B50546AC1D20884149E3
:1090C000C989884220D1208B02281DD100BF00BF52
:1090D000A17EE27E120211430846C107C90F002992
:1090E00002D0FFF77BFF0FE039480068FFF787FEEB
:1090F0000646002E07D033488069002803D0314847
:1091000081693046884700BF70BD10B5044608220B
:10911000A11D304800F05FFCFFF760FF10BD10B5E7
:1091200004462088102806D0112808D012280ED016
:10913000502810D107E02046FFF78FFF0CE02046B3
:10914000FFF7A0FF08E02046FFF7B5FF04E0204648
:10915000FFF7DBFF00E000BF00BF10BD38B50446DD
:1091600008222146134800F036FC12486ADF054603
:10917000002D1CD11748FFF7ABFE00280BD10120B2
:10918000114908700B490C48008865DF054601202D
:109190000B4908700BE00B484069002806D00120FD
:1091A0000090084841696846884700BF0025284666
:1091B00038BD00009E200020A8200020FFFF0000F6
:1091C000A6200020F02600209C200020EF8E010029
:1091D000B4200020AA20002070B506460C46154693
:1091E00029462046FBF7BBF870BDFFB581B00C46A1
:1091F00016461F4620468107890F01D1012100E054
:109200000021002902D1072005B0F0BD002C01D1BA
:109210000720F9E7254804602548068025480760AF
:1092200025490A9808602549019810DF0546002D58
:1092300001D02846E8E7162023DFE5E738B500BF70
:109240001B480088009069461848006850DF0446B3
:10925000052C00D10EE0002C06D000BF18A25F2123
:109260002046FBF771F800BF1048006811490968F3
:109270008847E5E700BF38BD70B50F480068002893
:1092800010D00D4800688047044600BF2546002DD9
:1092900006D000BF0AA271212846FBF755F800BF8F
:1092A00000BF01E0FFF7CAFF70BD0000C020002032
:1092B000C4200020B8200020BC200020D99101004B
:1092C0002E2E5C2E2E5C2E2E5C4E6F7264696353C4
:1092D000444B5C536F757263655C626C655C626C79
:1092E000655F737461636B5F68616E646C65722E39
:1092F0006300000000BF4D4880680128FBD10020BA
:109300004A4988604A488069C0B2704770B50446CF
:109310000D4601260AE02046641E002804DB7D205D
:10932000C000FAF745FF01E0002603E03F488068EF
:109330000128F0D100BF002C05DB00203B498860EC
:109340003B4880692870304670BD3949C86100BF0C
:109350003649C9690129FBD10021344AD1617047DE
:1093600030B50346002528466D1C1C5C05E02046F0
:10937000FFF7EBFF28466D1C1C5C002CF7D130BDBD
:10938000F8B507460C4615461E46204600F03AF84A
:109390000021304600F03FF82548C4604661069839
:1093A000002809D0384600F02DF80021284600F0AA
:1093B00032F81F480561876000201D494031C862AE
:1093C0000698002806D00846C06A012108431849BB
:1093D0004031C8620898002807D015484030C06A5C
:1093E0000E21084312494031C8621149079848626A
:1093F0000420086001200F498860086000200B49A4
:109400008860F8BD01210522120707231B02D2182C
:109410008300D150704710B58A0005231B0707242D
:1094200024021B1984001A5110BD000000210040C5
:10943000002500400020004070B500BFFF20013033
:10944000C949886000BF00BF4000886000BF042099
:10945000FAF7BEFEC4480069C005C00F06D0C24876
:1094600000698005C00F01D0012426E0BE480069D4
:109470008005C00F20D00024122518E000BF012075
:109480004002B949C86000BF0420FAF7A1FE00BF3E
:1094900001204002B449886000BF0420FAF798FE1A
:1094A000B1480069C005C00F01D0012403E028467F
:1094B0006D1E0028E2D100E00024204670BD10B5EA
:1094C00000BFAA480521090707221202891808626D
:1094D00000BF00BF052109078918486200BF00BF0F
:1094E00001204002A049886000BF00BF886100BF22
:1094F00000BF4010886000BF00BF886100BFFFF759
:109500009BFF10BD10B500BF012040029649886046
:1095100000BF0420FAF75CFE00BF93480069800595
:10952000C00FFAD0012010BD10B500BFFF200130E0
:109530008D49C86000BF0420FAF74AFEFFF7E2FF3A
:10954000002800D110BD00BFFF200130864988608F
:1095500000BF0420FAF73CFE0120F3E770B5064691
:10956000012400BF20028049886100BF80251EE0E1
:1095700000BF012040027C49C86000BF0420FAF708
:1095800027FE3046284205D000BFFF200130764933
:10959000886005E000BFFF2001307349C86000BF4C
:1095A000FFF7B0FF002801D1002402E06D08002D74
:1095B000DED100BF00BF012040026B49C86000BF80
:1095C0000420FAF705FE00BFFF2001306649C8619C
:1095D00000BF0420FAF7FCFDFFF794FF0440624847
:1095E0000069000A01214840044000BF48025E496A
:1095F000C86000BF0420FAF7EBFD00BFFF20013078
:109600005949886100BF204670BDF8B505460E4631
:1096100000270120009000BF00025349C86100BF2D
:10962000802417E0FFF76EFF002801D1009013E0BF
:109630004D480069C005C00F02D038462043074698
:1096400000BF012040024849C86000BF0420FAF76B
:10965000BFFD6408002CE5D100BF00BFFF20013032
:109660004149886100BF2F70002E02D000BFC86042
:1096700005E000BFFF2001303B49886000BF0420A7
:10968000FAF7A6FDFFF73EFF002800D1009000BFCB
:10969000012040023449C86000BF0420FAF798FD59
:1096A0000098F8BD10B500BFFF2001302E4988603A
:1096B00000BF0420FAF78CFDFFF724FF002800D13B
:1096C00010BD00BFFF2001302749C86000BF042043
:1096D000FAF77EFD00BF012040022349C86000BFA9
:1096E0000420FAF775FD0120EAE7FFB581B00746CF
:1096F0000D4616460124FFF7D5FF04403846FFF714
:109700002DFF0440F807C00F16D00DE0002E05D144
:1097100000212846FFF779FF044004E00121284694
:10972000FFF773FF04406D1C3046711ECEB2002857
:109730000FD0002CEAD10CE004E02878FFF70EFFF0
:1097400004406D1C3046711ECEB2002801D0002CA2
:10975000F3D10498002801D1002C02D1FFF7E4FED8
:109760000440204605B0F0BD000500500C06000086
:10977000F7B506460F46002E01D1684800E068485C
:109780000446002E1ED10C2000F0B0F80A2000F094
:10979000ADF800210B2000F0B2F80D2000F0A6F883
:1097A0000C2005210902611888600A20C101611896
:1097B000C8600B2005210902611808610D2000F026
:1097C000A8F81DE00C2000F091F80A2000F08EF8B7
:1097D00000210B2000F093F80D2000F087F80C20FA
:1097E00005210902611888600A20C1016118C8605A
:1097F0000B2005210902611808610D2000F089F88D
:10980000012000070521090261184862002F06D0D7
:10981000012F06D0022F06D0032F08D105E0002526
:1098200007E0022505E0042503E0062501E0002508
:1098300000BF00BF0298002806D001202843152150
:1098400089016118486103E01520800120184561F5
:109850000021FF2009300151012005210902611872
:1098600008602046FEBDFFB581B000270026019D9F
:109870002A48019D854201D10D2400E00D2400BF3E
:109880000120A0402749C86000BF27E00398805D01
:10989000052109026918C86100E07F1CFF2009301A
:1098A0004059002803D1032000038742F5D3032049
:1098B0000003874205D1204600F02BF8002005B0B8
:1098C000F0BD0021FF200930415105200002281879
:1098D0008069C1B204988155701C86B20298864294
:1098E000D4DB204600F015F80120E8E7012105222D
:1098F000120707231B02D2188300D150704710B5FE
:109900008A0005231B07072424021B1984001A510F
:1099100010BD01218140034A916070470030004032
:10992000004000400005005070B5064600F064F9A4
:10993000056830460B30C408E400B44201D800206A
:1099400070BD68682A46002818D00168A14211D36A
:109950000B46214608318B4208D3436801194B60FE
:1099600003681B1B0B605160046001E0416851609B
:10997000001D70BD024640680028E6D121462846F9
:1099800000F042F90028DCD170BD70B50446051F17
:1099900000F032F90068002C1AD0446801E020463B
:1099A0006468002C01D0AC42F9D301680A18AA42BD
:1099B00004D12A6805468918016000E045602868DE
:1099C0004119A14205D16168696021684018286089
:1099D00070BD6C6070BDF8B5042A2CD3830712D01B
:1099E0000B78491C0370401C521E83070BD00B7868
:1099F000491C0370401C521E830704D00B78491C7D
:109A00000370401C521E8B079B0F05D0C91ADF0044
:109A10002023DE1B08C90AE0FAF7EAFBF8BD1D4661
:109A200008C9FD401C46B4402C4310C0121F042A34
:109A3000F5D2F308C91A521EF0D40B78491C0370F2
:109A4000401C521EEAD40B78491C0370401C521E65
:109A5000E4D409780170F8BD01E004C0091F0429AD
:109A6000FBD28B0701D50280801CC90700D0027091
:109A7000704700290BD0C30702D00270401C491E5A
:109A8000022904D3830702D50280801C891EE3E7E4
:109A90000022EEE70022DFE7002203098B422CD3ED
:109AA000030A8B4211D300239C464EE003460B432E
:109AB0003CD4002243088B4231D303098B421CD390
:109AC000030A8B4201D394463FE0C3098B4201D382
:109AD000CB01C01A524183098B4201D38B01C01ABA
